:020000040800F2
:1000000000040020BF5700081D0400081F0400085A
:1000100023040008270400082B0400080000000047
:100020000000000000000000000000002F04000895
:100030003104000800000000330400083504000803
:10004000DF570008C3040008DF570008DF57000827
:10005000DF570008DF570008DF570008DF570008A8
:10006000DF570008DF570008DF570008DF57000898
:10007000DF570008DF570008DF570008DF57000888
:10008000DF570008DF570008DF570008DF57000878
:10009000DF570008DF570008DF570008671D00081A
:1000A000DF570008DF570008DF570008DF57000858
:1000B000DF1A0008DF570008DF570008DF57000885
:1000C000DF570008DF570008DF570008DF57000838
:1000D000DF57000881040008DF5700088904000882
:1000E000F11D0008DF570008DF570008DF57000840
:1000F000DF570008DF570008DF570008DF57000808
:10010000DF570008DF570008DF570008DF570008F7
:10011000DF570008DF570008DF570008DF570008E7
:10012000DF570008DF570008DF570008DF570008D7
:1001300000F002F800F05AF80AA090E8000C82449F
:100140008344AAF10107DA4501D100F04FF8AFF27C
:10015000090EBAE80F0013F0010F18BFFB1A43F0A5
:100160000103184734580000545800000A444FF067
:10017000000C10F8013B13F0070408BF10F8014B06
:100180001D1108BF10F8015B641E05D010F8016B4B
:10019000641E01F8016BF9D113F0080F1EBF10F8AF
:1001A000014BAD1C0C1B09D16D1E58BF01F801CBD2
:1001B000FAD505E014F8016B01F8016B6D1EF9D555
:1001C0009142D6D37047000000230024002500266A
:1001D000103A28BF78C1FBD8520728BF30C148BFAA
:1001E0000B6070471FB51FBD10B510BD05F084FB37
:1001F0001146FFF7F7FF00F079F805F0A2FB03B412
:10020000FFF7F2FF03BC05F0A7FB000030B5014685
:10021000B1F1807F01D3012030BD21F07F40401E2D
:100220004FF0E022506150170F22002807DA130721
:100230001D0E714B00F00F04241F1D5503E0130722
:100240001C0E6E4B1C5400BF00204FF0E02290614A
:10025000072010610020DFE7002106E0002200E017
:10026000521C674B9A42FBDB491C8142F6D3704714
:100270006448007801280DD16348C07928B900206E
:100280006149887108460079487100205E49C8714B
:100290005C490870704710B590B0002400BF0CE0B6
:1002A0004021684602F0FEFF18B1684602F05AFE8F
:1002B00005E00120FFF7D0FF641C642CF0DB00BFD9
:1002C000642C02DA012010B010BD0020FBE710B54D
:1002D0004D480068642802DC4B48006810B90020D3
:1002E00049490860002002F0A3F910BD90B005F064
:1002F0003BFA03F0ACFA0121444803F0F6FF03F0A7
:10030000F9FA01F029FF01F046FF03F007FA03F0C4
:100310002EFA01F0AFFD02F04DFF3D4800684FF4AA
:100320007A71B0FBF1F084002046FFF76FFF384888
:1003300000684FF47A71B0FBF1F42046FFF766FFD6
:1003400008B100BFFEE71420FFF786FF03F0BCF9F9
:1003500002F071FE47E02C488079032823D0C821A1
:10036000002002F0C9F86421012002F0C5F84FF422
:10037000FA71022002F0C0F86421032002F0BCF8F8
:100380004FF4FA71042002F0B7F801F0EDFDFFF729
:100390009EFFFFF780FF012801D1032000E000202D
:1003A000194988711FE04021684602F07BFF10B1B7
:1003B000684602F0D7FDFFF75BFF134880790428F9
:1003C00011D14FF47A70FFF747FF00BF0A480C388D
:1003D000006800F4E0600F490843001D06490C392D
:1003E000086000BF00BFB6E7002000E0401C0A49DB
:1003F0008842FBDB7047000018ED00E000E400E0FD
:10040000F8240100080000208C01002000023000C8
:10041000845900080000FA05FFFF0F00704700BF75
:10042000FEE700BFFEE700BFFEE700BFFEE7704744
:100430007047704710B5F8480068401CF6490860DE
:1004400001F016FFF448006832280DD101F04FFF8B
:100450000020F1490860F1488079032804D1F04870
:100460000088401CEE490880ED480088B0F5966F82
:1004700005D10120EB4908700020E949088010BD32
:1004800010B501F0C6FE10BD10B5002440F2255194
:10049000E54805F0C1F898B1E34805F05EF8C4B24C
:1004A000E2480088B0F5007F07DAE0490888411C7F
:1004B000DE4A1180DE490C5402E00020DB4908804E
:1004C00010BD704710B50024D448807A401CC1B2DA
:1004D000D2488172807A3C2807D1D048407A401CAB
:1004E000C1B2CE48417200218172CC48407A3C288A
:1004F00007D1CA48007A401CC84908720021C74881
:100500004172C648007A182802D10020C3490872F7
:10051000C248C07AE8B1C148007AC049C97B884264
:1005200037D1BE48417A007C814232D1BB48817AC2
:10053000407C81422DD10220B849087101F00BFDA9
:100540000C2001F01AFD0020B449C8720120487344
:100550001FE0B248007BE0B1B048007AAF49897C27
:10056000884216D1AD48417AC07C814211D1AB4856
:10057000817A007D81420CD10120A849087101F0E7
:10058000F3FC0C2001F03CFD0020A449087301207D
:10059000887310BDA7480078012810D10720A6490C
:1005A00088720120C8720871002008724872487170
:1005B0008871C871A148086000209E490870A04851
:1005C0000078012810D108209B4988720120C87248
:1005D000087100200872487248718871C871994882
:1005E000086000209649087097480078012810D1CB
:1005F0000920914988720120C87208710020087290
:10060000487248718871C8719048086000208E490E
:10061000087070470CB58EA1096801918DA1096819
:1006200000918549897A062904D2DFE801F00303A5
:100630000422238E56E38049097A7F4A517211467B
:10064000097A491E11721146097A012901DA042139
:1006500011727949097A042905D00421764A9171E9
:100660000821D17104E00621734A91710421D171EE
:1006700038E337E37049097A6F4A51721146097AB3
:10068000022948D11146097A491E01EB0111724A2B
:100690001144694A9279885C30280DDC2A280BD0F5
:1006A00039226549097A491E01EB01116A4B194447
:1006B000614B9B79CA5447E0302818DD392816DC95
:1006C0005D49097A491E01EB0111634A11445A4AF6
:1006D0009279895C491ECAB25749097A491E01EBD1
:1006E00001115D4B1944544B9B79CA542CE02A28C4
:1006F0002AD151498979062905DD4F498979491E51
:100700004D4A917120E004214B4A11720C219171E4
:100710000421D17118E04849097A042914D14649C5
:10072000897939B90921444A91710121D171022194
:10073000117209E0404989790C2905D100213E4A0E
:1007400091710421D1711172CCE23B49097A3A4A84
:1007500051721146097A01294FD11146897931B96F
:10076000042111720C2191710421D171B9E2324935
:1007700089790A29FAD13049097A491E01EB011118
:10078000364A11442C4A9279895C9DF804209142A2
:1007900019D19DF800202849097A491E01EB011161
:1007A0002E4B1944244B9B79CA549DF801202249B1
:1007B000097A491E01EB0111284B0B441E49897926
:1007C000491C5A548DE29DF804201B49097A491EA0
:1007D00001EB0111214B1944174B9B79CA549DF829
:1007E00005201549097A491E01EB01111B4B0B44E9
:1007F00011498979491C5A5473E20F49097A02292F
:100800007ED10D49897959BB01210B4A1172002112
:1008100091710821D17164E20C0000208C0100204C
:100820000A0000200800002000480040B601002017
:10083000C407002012000020140000205C030020E8
:1008400010000020A003002011000020E40300207D
:10085000B9D80000BFAA000090020020D4020020F6
:10086000FFE7F74989790A292ED1F549097A491E06
:1008700001EB0111F34A1144F14A9279895C302964
:100880000BD13222EE49097A491E01EB0111ED4BE1
:100890001944EB4B9B79CA5423E2E949097A491E72
:1008A00001EB0111E74A1144E54A9279895C491E3E
:1008B000CAB2E349097A491E01EB0111E14B19441F
:1008C000DF4B9B79CA540CE2DD4989790B296CD145
:1008D000DB49097A491E01EB0111DA4A0A44D84979
:1008E0008979491E515C322930D1D549097A491E8E
:1008F00001EB0111D34A1144D14A9279895C00E09D
:10090000B9E030290BD13322CD49097A491E01EBD8
:100910000111CC4B1944CA4B9B79CA54E1E1C84937
:10092000097A491E01EB0111C64A1144C44A927961
:10093000895C491ECAB2C249097A491E01EB0111FC
:10094000C04B1944BE4B9B79CA54CAE1BC49097AD1
:10095000491E01EB0111BB4A1144B94A9279895CE5
:1009600030290BD13922B649097A491E01EB011110
:10097000B44B1944B24B9B79CA54B2E1B049097ADD
:10098000491E01EB0111AF4A1144AD4A9279895CCD
:10099000491ECAB2AA49097A491E01EB0111A94BA5
:1009A0001944A74B9B79CA549BE1A54989790D2924
:1009B0002ED1A349097A491E01EB0111A14A114424
:1009C0009F4A9279895C30290BD135229C49097A5A
:1009D000491E01EB01119B4B1944994B9B79CA5459
:1009E0007FE19749097A491E01EB0111954A1144AB
:1009F000934A9279895C491ECAB29149097A491E83
:100A000001EB01118F4B19448D4B9B79CA5468E15E
:100A10008B4989790E2998D18949097A491E01EBB8
:100A20000111884A1144864A9279895C30290BD198
:100A300039228349097A491E01EB0111814B19447E
:100A40007F4B9B79CA544CE17D49097A491E01EBE1
:100A500001117C4A11447A4A9279895C491ECAB2D2
:100A60007749097A491E01EB0111764B1944744B01
:100A70009B79CA5435E17249097A03297DD17049BD
:100A8000897939B902216E4A1172002191710821C8
:100A9000D17126E16A4989790A292ED16849097AF2
:100AA000491E01EB0111674A1144654A9279895C3C
:100AB00030290BD132226249097A491E01EB01111A
:100AC000604B19445E4B9B79CA540AE15C49097A30
:100AD000491E01EB01115B4A1144594A9279895C24
:100AE000491ECAB25649097A491E01EB0111554BFC
:100AF0001944534B9B79CA54F3E0514989790B2926
:100B00006BD14F49097A491E01EB01114D4A0A4444
:100B10004B498979491E515C32292FD14849097ABC
:100B2000491E01EB0111474A1144454A9279895CFB
:100B300030290BD133224249097A491E01EB0111B8
:100B4000404B19443E4B9B79CA54CAE03C49097A50
:100B5000491E01EB01113B4A1144394A9279895CE3
:100B6000491ECAB23649097A491E01EB0111354BBB
:100B70001944334B9B79CA54B3E098E03049097A61
:100B8000491E01EB01112F4A11442D4A9279895CCB
:100B900030290BD139222A49097A491E01EB01116A
:100BA000284B1944264B9B79CA549AE02449097A68
:100BB000491E01EB0111234A1144214A9279895CB3
:100BC000491ECAB21E49097A491E01EB01111D4B8B
:100BD00019441B4B9B79CA5483E0194989790D2923
:100BE00032D11749097A491E01EB0111154A114406
:100BF000134A9279895C30290BD135221049097A40
:100C0000491E01EB01110F4B19440D4B9B79CA543E
:100C100067E00B49097A491E01EB0111094A1144A9
:100C2000074A9279895C491ECAB20549097A491E68
:100C300001EB0111034B1944014B9B79CA5450E05D
:100C400014000020D4020020F94989790E2948D1E6
:100C5000F749097A491E01EB0111F64A1144F44A99
:100C60009279895C30290BD13922F149097A491EE0
:100C700001EB0111EF4B1944ED4B9B79CA5430E065
:100C8000EB49097A491E01EB0111EA4A1144E84A8D
:100C90009279895C491ECAB2E549097A491E01EB7D
:100CA0000111E44B1944E24B9B79CA5419E0E04925
:100CB000097A042915D1DE49897939B90321DC4A39
:100CC0001172002191710821D1710AE0D849897906
:100CD0000C2906D10421D64A1172002191710421F8
:100CE000D17100BF00BF0CBD0CB5AFF29C410968CB
:100CF0000191AFF2A04109680091CD49897A062996
:100D000004D2DFE801F003030422238B30E3C84957
:100D1000097AC74A51721146097A491C1172114663
:100D2000097A042901DD01211172C149097A0429D6
:100D300005D00421BE4A91710821D17104E0062139
:100D4000BB4A91710421D17112E311E3B849097AC8
:100D5000B74A51721146097A022946D11146097AD9
:100D6000491E01EB0111B44A1144B14A9279885CE1
:100D700039280BDB3022AE49097A491E01EB0111FB
:100D8000AD4B1944AA4B9B79CA5446E0302818DB76
:100D9000392816DAA649097A491E01EB0111A64A3B
:100DA0001144A34A9279895C491CCAB2A049097AC4
:100DB000491E01EB0111A04B19449D4B9B79CA546C
:100DC0002BE02A2829D19A498979092905DA9849F5
:100DD0008979491C964A91711FE00421944A117245
:100DE000002191710421D17117E09149097A0429F8
:100DF00013D18F49897929B90C218D4A9171042128
:100E0000D1710AE08A4989790C2906D10621884ADC
:100E100091710121D17102211172A9E28449097AEB
:100E2000834A51721146097A01294FD111468979B5
:100E300031B902211172002191710821D17196E21C
:100E40007B4989790A29FAD17949097A491E01EB46
:100E50000111784A1144764A9279895C9DF8042000
:100E6000914219D19DF800207149097A491E01EB80
:100E70000111704B19446E4B9B79CA549DF80120A7
:100E80006B49097A491E01EB01116A4B0B44684911
:100E90008979491C5A546AE29DF804206449097A08
:100EA000491E01EB0111634B1944614B9B79CA54F4
:100EB0009DF805205E49097A491E01EB01115D4B41
:100EC0000B445B498979491C5A5450E25849097AC4
:100ED00002297DD15649897939B90321544A1172C1
:100EE000002191710821D17141E2514989790A2982
:100EF0002ED14F49097A491E01EB01114D4A114487
:100F00004B4A9279895C32290BD130224849097ABF
:100F1000491E01EB0111474B1944454B9B79CA54BB
:100F200025E24349097A491E01EB0111414A114466
:100F30003F4A9279895C491CCAB23D49097A491EE7
:100F400001EB01113B4B1944394B9B79CA540EE21A
:100F5000374989790B2972D13549097A491E01EB44
:100F60000111344A0A4432498979491E515C3229B7
:100F70002FD12F49097A491E01EB01112D4A114445
:100F80002B4A9279895C33290BD130222849097A7E
:100F9000491E01EB0111274B1944254B9B79CA547B
:100FA000E5E12349097A491E01EB0111214A114467
:100FB0001F4A9279895C491CCAB21D49097A491EA7
:100FC00001EB01111B4B1944194B9B79CA54CEE11B
:100FD0009BE01749097A491E01EB0111154A11449A
:100FE000134A9279895C39290BD130221049097A48
:100FF000491E01EB01110F4B19440D4B9B79CA544B
:10100000B5E10B49097A491E01EB0111094A114466
:10101000074A9279895C491CCAB20549097A491E76
:1010200001EB0111034B1944014B9B79CA549EE11A
:1010300014000020D402002090020020FFE7FB49AA
:1010400089790D292ED1F949097A491E01EB01113F
:10105000F74A1144F54A9279895C35290BD130223F
:10106000F249097A491E01EB0111F14B1944EF4B8A
:101070009B79CA547BE1ED49097A491E01EB0111C4
:10108000EB4A1144E94A9279895C491CCAB2E749A2
:10109000097A491E01EB0111E54B1944E34B9B7999
:1010A000CA5464E1E14989790E2990D1DF49097A6E
:1010B000491E01EB0111DE4A1144DC4A9279895C38
:1010C00039290BD13022D949097A491E01EB011186
:1010D000D74B1944D54B9B79CA5448E1D349097A77
:1010E000491E01EB0111D24A1144D04A9279895C20
:1010F000491CCAB2CD49097A491E01EB0111CC4BFA
:101100001944CA4B9B79CA5431E1C849097A032969
:101110007DD1C649897939B90421C44A11720021A7
:1011200091710421D17122E1C04989790A292ED116
:10113000BE49097A491E01EB0111BD4A1144BB4A5F
:101140009279895C32290BD13022B849097A491E3B
:1011500001EB0111B64B1944B44B9B79CA5406E11B
:10116000B249097A491E01EB0111B14A1144AF4A53
:101170009279895C491CCAB2AC49097A491E01EBD3
:101180000111AB4B1944A94B9B79CA54EFE0A74915
:1011900089790B296BD1A549097A491E01EB011107
:1011A000A34A0A44A1498979491E515C32292FD1A9
:1011B0009E49097A491E01EB01119D4A11449B4A3F
:1011C0009279895C33290BD130229849097A491EDA
:1011D00001EB0111964B1944944B9B79CA54C6E01C
:1011E0009249097A491E01EB0111914A11448F4A33
:1011F0009279895C491CCAB28C49097A491E01EB73
:1012000001118B4B1944894B9B79CA54AFE094E090
:101210008649097A491E01EB0111854A1144834A26
:101220009279895C39290BD130228049097A491E8B
:1012300001EB01117E4B19447C4B9B79CA5496E01B
:101240007A49097A491E01EB0111794A1144774A1A
:101250009279895C491CCAB27449097A491E01EB2A
:101260000111734B1944714B9B79CA547FE06F494C
:1012700089790D292ED16D49097A491E01EB011199
:101280006B4A1144694A9279895C35290BD1302225
:101290006649097A491E01EB0111654B1944634BFC
:1012A0009B79CA5463E06149097A491E01EB011137
:1012B0005F4A11445D4A9279895C491CCAB25B4914
:1012C000097A491E01EB0111594B1944574B9B797F
:1012D000CA544CE0554989790E2948D15349097AB5
:1012E000491E01EB0111524A1144504A9279895C1E
:1012F00039290BD130224D49097A491E01EB0111E0
:101300004B4B1944494B9B79CA5430E04749097A01
:10131000491E01EB0111464A1144444A9279895C05
:10132000491CCAB24149097A491E01EB0111404BDF
:1013300019443E4B9B79CA5419E03C49097A042967
:1013400015D13A49897939B90421384A11720C21E9
:1013500091710421D1710AE0344989790C2906D1AF
:101360000121324A1172002191710821D17100BF0F
:1013700000BF0CBD08B5AFF62830006800902C48BF
:10138000807A9DF80010884208D10120294908710F
:1013900000F0EAFD0C2000F033FE07E002202549B2
:1013A000087100F0E1FD0C2000F0E7FD2048007F0F
:1013B00030381F49C97E303901EB810100EB410013
:1013C0001C49C8731A48C07F30381949897F3039A1
:1013D00001EB810100EB4100C1B21648017400210C
:1013E0004174134890F82D003038114991F82C10B1
:1013F000303901EB810100EB41000E4988740C4843
:1014000090F8300030380A4991F82F10303901EB4C
:10141000810100EB4100C1B20648C1740021017591
:1014200001200449C872087308BD000014000020A0
:10143000D40200208C0100200020F949C87300214B
:10144000F748017441740020F54988740021F4487C
:10145000C17401750020F2490873C872704770B5F5
:101460008CB01422EFA107A804F011FA00241C226A
:10147000F1A1684604F00BFAF648807A0A2816D2E1
:10148000DFE800F0150516FEFDFCFBFAF9F8022076
:10149000F04988720120C8720871087248720020F1
:1014A0004871042088710820C871EB4808608DE2FB
:1014B000E848007A04280DD10120E6498872C872F4
:1014C000002008710872487248718871C871E34839
:1014D0000860F2E0DF48007A01287DD1D048C07A68
:1014E000012824D1CE48C07B0A2190FBF1F0303096
:1014F000DB494872CA48C07B0A2190FBF1F201FB2C
:1015000012003030D6498872C548007C0A2190FB11
:10151000F1F03030D2490873C148007C0A2190FBB9
:10152000F1F201FB12003030CD49487305E0302064
:10153000CB494872887208734873B948007B012808
:1015400028D1B748807C0A2190FBF1F03030C1B23D
:10155000C3488176B248807C0A2190FBF1F201FBFE
:1015600012003030C1B2BE48C176AD48C07C0A21FD
:1015700090FBF1F03030C1B2B9484177A848C07C47
:101580000A2190FBF1F201FB12003030C1B2B448E5
:10159000817705E03021B2488176C1764177817745
:1015A0009F48017E007F01449D4890F82000084438
:1015B000C4B2642C07DB0024002099498861002113
:1015C0009748C16101620A2094FBF0F03030C1B24B
:1015D000A34880F82B1000E01AE00A2094FBF0F1F9
:1015E00000FB11403030C1B29D4880F82C10032020
:1015F000984988720120C8720871042008724872E4
:101600000020487188710420C8719548086054E032
:101610009048007A02281BD104208E49887201204C
:10162000C8720871022008724872002048710620B2
:1016300088710120C8718B480860097A491E01EB46
:101640000111024688181022874904F0DBF834E0C3
:101650008048007A032830D106207E498872012014
:10166000C872087100200872487248718871C87188
:101670007E4806E09CE19AE198E196E1ABE02EE03D
:101680001CE00860664800680A2190FBF1F03030E9
:10169000C0B28DF812006248006890FBF1F201FBC5
:1016A00012003030C0B28DF81300684601F0E4FC3F
:1016B000C6B23146684601F037FE87E1022065492F
:1016C00088720120C872087108724872002048713F
:1016D000042088710820C8715F48086076E15D4881
:1016E000007A022829D15B48007A401E00EB0010E6
:1016F0005C49084457498979455C2A2D0BD1302132
:101700005448007A401E00EB0010564A1044514ADB
:10171000927981545EE04F488079092805DA4D4876
:101720008079401C4B49887154E004204949087273
:10173000002088710420C8714CE04648007A0428D3
:1017400048D14448807980B90220424988720120FA
:10175000C8720871087248720020487104208871AC
:101760000820C8713C48086034E03A4880790C2869
:1017700030D13C48C07D3E490978884221D1394862
:10178000007E3B49497888421BD13648407E384923
:101790008978884215D13348807E3549C978884296
:1017A0000FD105202B4988720120C8720871087278
:1017B00048720020487188710820C8712D4808605F
:1017C00008E0102207A92748223004F01BF8012066
:1017D0002049C872FAE01F48007A012812D11D483A
:1017E000807928B90A201B4988710220C871DBE082
:1017F000184880790A28FAD10020164988710820F3
:10180000C871D1E01348007A02285DD1114880796F
:1018100028B90A200F4988710120C871C4E02BE063
:101820008C01002020202020C3DCC2EBB4EDCEF3DD
:10183000202020200000000026435323383030327F
:1018400023303030303031233030303123303424C5
:10185000000000001400002008020020C401002045
:101860004C020020900200202804002018030020D1
:1018700039040020D4020020FE4880790A2805D1CE
:101880000B20FC4988710120C8718DE0F9488079EE
:101890000B2805D10D20F74988710120C87183E01C
:1018A000F44880790D2805D10E20F2498871012075
:1018B000C87179E0EF4880790E2875D10020ED4994
:1018C00088710820C8716FE0EA48007A032830D197
:1018D000E848807928B90A20E64988710120C87152
:1018E00062E0E44880790A2805D10B20E14988713B
:1018F0000120C87158E0DF4880790B2805D10D2000
:10190000DC4988710120C8714EE0DA4880790D28E1
:1019100005D10E20D74988710120C87144E0D5480F
:1019200080790E2840D10020D24988710820C871E2
:101930003AE0D048007A042836D1CE488079E8B918
:101940000420CC4988720120C872087102200872F4
:10195000487200204871062088710120C871C6486D
:101960000860097A491E01EB01110246881810220D
:10197000C24903F047FFFFF75FFD15E0BD488079DE
:101980000C2811D10220BB4988720120C87208714D
:101990000872487200204871042088710820C871BC
:1019A000B7480860FFF7E6FC10E000BF00BF00BFCB
:1019B0000120B0498872C87200200871087248720C
:1019C00048718871C871AF48086000BF00BF0CB093
:1019D00070BD70B504460025062C2BD2DFE804F05C
:1019E00003041E24212725E0A2480268007A401E35
:1019F00000EB001011181022A34803F003FF9D48CC
:101A0000857903E02020A04948556D1C99488079CC
:101A10009849C9790844A842F4DC0BE0FFF71FFDA0
:101A200008E0FFF761F905E0FEF7F4FD02E0FEF7DC
:101A3000B1FD00BF00BF8F48C07A38B18D49887AA8
:101A400001F013FE00208B49C87247E0012C0DD134
:101A50008848007A002841DD8648007A05283DDA6A
:101A60008449087A884901F0D6FD37E0DCB981481D
:101A7000007A002832DD7F48007A05282EDA7D487A
:101A80000168007A401E00EB0010084430B3794A28
:101A90001368127A521E02EB02129918754A107AD4
:101AA00001F0B9FD1AE07348407A002816DD71484C
:101AB000407A052812DA6F480168407A401E00EB30
:101AC0000010084450B16B4A1368527A521E02EB60
:101AD00002129918674A507A01F09DFD70BD1CB53D
:101AE0006AA0006801906AA0006800900121880740
:101AF00003F0EFFB00287DD05E48007980B15D489F
:101B0000407930B90020FFF764FF0120594948713E
:101B100002E10120FFF75DFF002056494871FBE01C
:101B20005C4800680028F3DB022052490872042058
:101B3000887154480860012088725648007A0A214A
:101B400090FBF1F03030C1B24A480268007A401E82
:101B500000EB00101044474A927981544D48007AB6
:101B60000A2190FBF1F201FB12003030C1B2414872
:101B70000268007A401E00EB001002443D48807964
:101B8000401C11544348407A0A2190FBF1F0303058
:101B9000C1B238480268007A401E00EB00100244CF
:101BA00034488079C01C11543A48407A0A2190FB8D
:101BB000F1F201FB12003030C1B22E480268007A07
:101BC000401E00EB001002442A488079001D115489
:101BD0003048807A0A2190FBF1F03030C1B22548BC
:101BE0000268007A401E00EB001002442148807910
:101BF000801D00E0B6E011542648807A0A2190FB4F
:101C0000F1F201FB12003030C1B21A480268007ACA
:101C1000401E00EB0010024416488079C01D11548C
:101C20000020FFF7D6FE04201249087202208871B6
:101C300018480079012802D016480079C8B99DF8E3
:101C400000100C480268007A401E00EB001010449F
:101C5000084A927981549DF8011006480268007A7A
:101C6000401E00EB0010024402488079401C1154D1
:101C70002FE011E014000020900200202804002032
:101C800008020020C4010020D4040020BFAA0000E4
:101C9000B9D800008C0100206F480079022818D1C3
:101CA0009DF804106D480268007A401E00EB001099
:101CB00010446A4A927981549DF805106748026879
:101CC000007A401E00EB0010024464488079401CFA
:101CD0001154614800680A2190FBF1F03030C1B224
:101CE0005E480268007A401E00EB001010448173C9
:101CF000594800680A2190FBF1F201FB12003030D4
:101D0000C1B256480268007A401E00EB0010104431
:101D1000C1730020FFF75DFE00F083FC18B1FFF7F0
:101D20009EFB00F081FC4E480078012807D04D480A
:101D30000078012803D04C480078012802D1052002
:101D4000FFF747FE4948006818B901204749086075
:101D500004E0002045490860FEF7B4FB0121880734
:101D600003F0C0FA1CBD10B5802001F0D3FE48B1CD
:101D70000220FFF72EFE00203D490870802001F070
:101D8000DAFE34E04FF4807001F0C4FEA8B13848A8
:101D9000007818B901203649087009E03448007805
:101DA000022805D10420FFF714FE002030490870F6
:101DB0004FF4807001F0BFFE19E04FF4007001F0A5
:101DC000A9FEA0B12A48007818B902202849087055
:101DD00009E027480078012805D10320FFF7F9FD25
:101DE0000020234908704FF4007001F0A4FE10BDDC
:101DF00010B54FF4005001F08DFE58B11648006A3E
:101E0000401C15490862012017490870400301F081
:101E100092FE20E04FF4804001F07CFE58B10E4865
:101E2000C069401C0C49C86101200E49087080033C
:101E300001F081FE0FE04FF4004001F06BFE50B165
:101E400005488069401C04498861012004490870E4
:101E5000C00301F070FE10BD8C01002014000020B2
:101E6000120000201100002010000020240000209B
:101E70002000002008B54E20ADF8000003208DF8AA
:101E8000020010208DF803006946AD4802F05CF9AD
:101E90004FF44060ADF8000003208DF802001020E0
:101EA0008DF803006946A74802F04EF942F20F0090
:101EB000ADF8000003208DF8020010208DF803001B
:101EC0006946A14802F040F943F67000ADF8000001
:101ED00003208DF8020010208DF8030069469B480E
:101EE00002F032F941F60110ADF8000003208DF840
:101EF000020048208DF803006946914802F024F959
:101F00004FF47070ADF8000003208DF802004820F7
:101F10008DF8030069468C4802F016F94FF46070A2
:101F2000ADF8000003208DF8020004208DF80300B6
:101F30006946844802F008F94FF46040ADF80000AB
:101F400003208DF8020004208DF8030069468048C4
:101F500002F0FAF808BD10B50821794802F0A1F99D
:101F600001207C49087010BD10B50821744802F0AA
:101F70009AF900207749087010BD10B50446A4F105
:101F80000B000A2839D2DFE800F0050A0F14191EE9
:101F900023292E3304216A4802F083F92EE002211E
:101FA000674802F07EF929E00821674802F079F9D4
:101FB00024E00421644802F074F91FE00221624821
:101FC00002F06FF91AE001215F4802F06AF915E0AA
:101FD0004FF400515C4802F064F90FE040215B4887
:101FE00002F05FF90AE02021584802F05AF905E0B2
:101FF0001021564802F055F900E000BF00BF10BDA7
:1020000010B50446A4F10B000A2839D2DFE800F02D
:10201000050A0F14191E23292E330421484802F003
:1020200042F92EE00221464802F03DF929E008215C
:10203000454802F038F924E00421434802F033F91E
:102040001FE00221404802F02EF91AE001213E482B
:1020500002F029F915E04FF400513B4802F023F952
:102060000FE04021394802F01EF90AE020213748EC
:1020700002F019F905E01021344802F014F900E0EB
:1020800000BF00BF10BD70B505460B2D4BD2DFE879
:1020900005F04A060D141B22292F353C43004FF44E
:1020A0000061274802F0E3F804463DE04FF4805118
:1020B000234802F0DCF8044636E04FF480712048F3
:1020C00002F0D5F804462FE04FF400711E4802F0EC
:1020D000CEF8044628E04FF480711B4802F0C7F8A0
:1020E000044621E08021184802F0C1F804461BE0B4
:1020F0004021154802F0BBF8044615E04FF40041BA
:10210000134802F0B4F804460EE04FF48041104842
:1021100002F0ADF8044607E04FF400510C4802F01D
:10212000A6F8044600E000BF00BF204670BD094885
:102130000078704710B50121014802F098F810BDF1
:1021400000080140000C014000100140001801404F
:1021500000140140280000201FB54FF4E13000902A
:102160000020ADF80400ADF80600ADF80800ADF8A9
:102170000C000C20ADF80A006946D24803F013F9B0
:10218000012240F22551CF4803F087F90121CD48C3
:1021900003F077F91FBD08B54FF40070ADF80000EB
:1021A00003208DF8020018208DF803006946C64808
:1021B00001F0CAFF4FF48060ADF8000004208DF8F4
:1021C00003006946C04801F0BFFF08BD10B50446D2
:1021D0002146BC4803F0BDF900BF8021B94803F097
:1021E0000FFA0028F9D0204610BD70B504460D4600
:1021F000002605E014F8010BFFF7E8FF701CC6B2DB
:10220000AE42F7DB002240F22771AE4803F045F9F9
:1022100070BD10B540F22551AA4803F0FDF9C8B1D0
:10222000A84803F09AF9C4B2A8480088B0F5007F26
:1022300007DAA6490888411CA44A1180A4490C5415
:1022400008E00020A14908800888411C9F4A1180AD
:102250009F490C5410BD10B50446204600F0D6F935
:1022600010BD10B504462146012000F079F910BDDB
:1022700010B59848007820BB974801F076F80128FF
:102280001FD1954800F0F8FE04462146924800F020
:1022900088FE924908700846007840B98E4800F0E0
:1022A000EBFEC4B221468C48FFF79FFF09E08B4844
:1022B0000078012805D18848FFF7D3FF0120854920
:1022C000087084480078012810D185480068642887
:1022D00007D38148FFF7BFFF00207E49087080497F
:1022E00008607F480068401C7D49086010BD2DE9EA
:1022F000F04190B0002655E07548805D4F280AD126
:102300007349701C085C4B2805D101207549087081
:1023100000F0E1FE49E06E48805D262841D16C491D
:10232000701C085C53283CD1374600253C460FE022
:10233000402D00DB0FE06648005D0DF805006D1CC8
:102340006348005D242801D0402D00DB03E0641CBD
:10235000B4F5007FECDB00BFB4F5007F15D1402D54
:1023600013DA00240DE0402D00DB0DE05848005D3D
:102370000DF805006D1C5648005D242800D103E0CF
:10238000641CB4F5007FEEDB00BF684600F074FE0D
:1023900000F0FF084146684600F05CFF00F09BFE3D
:1023A00003E0761CB6F5007FA6DB00BF10B0BDE8E9
:1023B000F0814C480078704700204A490870704707
:1023C0001FB54FF4165000900020ADF80400ADF892
:1023D0000600ADF80800ADF80C000C20ADF80A00BE
:1023E0006946414802F0DFFF012240F225513E4894
:1023F00003F053F801213C4803F043F81FBD08B532
:102400004FF48060ADF8000003208DF80200182022
:102410008DF803006946354801F096FE4FF40060E0
:10242000ADF8000004208DF8030069462F4801F044
:102430008BFE08BD10B5044621462B4803F089F8F1
:1024400000BF8021284803F0DBF80028F9D020469F
:1024500010BD70B504460D46002605E014F8010BCA
:10246000FFF7E8FF701CC6B2AE42F7DB0D20FFF7A6
:10247000E1FF0A20FFF7DEFF70BD30B502460B46D4
:10248000002000211A4C2488D4B100BF13E0441C62
:10249000174D2D88AC4209DA164C245C0D2C05D161
:1024A000144D441C2C5D0A2C00D108E0114C245C16
:1024B0001454441CE0B20E4C2488A042E7DB00BF59
:1024C00030BD00000038014000080140B401002088
:1024D000C40500203C0000206505002034000020D9
:1024E000380000203500002000480040000C01406A
:1024F000B6010020C40700202DE9F04104460D4636
:102500000027B8460026052C0ED2DFE804F00305AC
:1025100007090B00FC4F08E0FC4F06E0FC4F04E00D
:10252000FC4F02E0FC4F00E000BF00BF384600F067
:10253000A3FD804608F0FF01384600F0F5FE0026B6
:1025400009E0FFF736FF10B1FFF736FF05E0012085
:10255000FDF782FE761CAE42F3DB00BFBDE8F081E2
:102560002DE9F04188B006460D4600271422EB49BC
:1025700001A803F08CF901A800F07EFD044615B90E
:1025800008B0BDE8F081284600F076FD074602223B
:1025900006A9304600F0BBFD032207A9384600F02B
:1025A000B6FD9DF818202046641C01A90A549DF828
:1025B00019202046641C0A542C222046641C0A540C
:1025C0009DF81C202046641C0A549DF81D202046BE
:1025D000641C0A549DF81E202046641C0A540D22D7
:1025E0002046641C0A540A222046641C0A54002215
:1025F0002046641C0A5401A800F03EFD00F0FF08CC
:10260000414601A8FFF7F1FD00BFB9E770B50446E8
:10261000204600F031FD0546E9B22046FFF7E5FD12
:1026200070BDBF48007870470020BD4908707047F2
:10263000F0B599B00646BBA000681890BAA103C9CE
:10264000CDE91401BAA000680290B9A00068019019
:102650000025002436B1012E09D0022E0FD0032E02
:102660001DD114E0B3A103C9CDE9160117E0B3A150
:1026700003C9CDE9160130208DF809000FE0B1A1A2
:1026800003C9CDE9160134208DF8090007E0AFA198
:1026900003C9CDE9160131208DF8090000BF00BF44
:1026A000AC490422086813A900F031FD262228460F
:1026B0006D1C03A90A54002406E018A8025D2846F0
:1026C0006D1C03A90A54641C18A800F0D5FCA04294
:1026D000F3D8232228466D1C03A90A54002406E0DF
:1026E00016A8025D28466D1C03A90A54641C16A88E
:1026F00000F0C2FCA042F3D8232228466D1C03A997
:102700000A54002406E014A8025D28466D1C03A9A3
:102710000A54641C14A800F0AFFCA042F3D8232292
:1027200028466D1C03A90A54002406E013A8025D84
:1027300028466D1C03A90A54641C042CF6DB2322D2
:1027400028466D1C03A90A54A6BB002406E001A874
:10275000025D28466D1C03A90A54641C01A800F000
:102760008BFCA042F3D8232228466D1C03A90A54EF
:10277000002406E001A8025D28466D1C03A90A5446
:10278000641C01A800F078FCA042F3D8232228465C
:102790006D1C03A90A54002406E001A8025D284626
:1027A0006D1C03A90A54641C01A800F065FCA0423A
:1027B000F3D80EE0FFE7002406E002A8025D2846F9
:1027C0006D1C03A90A54641C02A800F055FCA04229
:1027D000F3D8242228466D1C03A90A540022294656
:1027E0006D1C03A8425400F047FCC7B2394603A849
:1027F00000F09AFD19B0F0BD70B586B004464FA147
:1028000003C9CDE904014BA103C9CDE902010026AA
:10281000002500BF05E0605D232801D12E4605E0BC
:102820006D1C204600F028FCA842F4D800BF761C9E
:10283000002504E07019205C0DF805006D1C042DC6
:10284000F8DB00200DF8050004A9684600F091FCB3
:1028500018B101203F49C87134E002A9684600F070
:1028600088FC78B3A07D3038617D303901EB81017F
:1028700000EB410037490872607E3038217E3039E4
:1028800001EB810100EB4100C1B232484172207F6F
:102890003038E17E303901EB810100EB4100C1B2FB
:1028A0002C48817203202B4988710846407918B161
:1028B00008464079087102E001202649087100208D
:1028C0002549086006B070BDF0B597B0044623A155
:1028D00003C9CDE9150123A103C9CDE9130123A142
:1028E00003C9CDE9110123A103C9CDE90F0123A13A
:1028F00003C9CDE90D01242222A102A802F0C7FFDD
:102900000026002500BF55E0480000208800002078
:10291000C800002008010020480100206859000874
:102920008801002043530000303030303031000047
:1029300030300000383030310000000038303030A6
:1029400000000000383030320000000038303033F2
:10295000000000008C010020B00100203130303236
:1029600000000000313030300000000031303035E0
:1029700000000000313030310000000031303039CB
:1029800000000000264352233130303223303030F3
:10299000303030233030303023303023303023306B
:1029A0003023303024000000605D232801D12E4602
:1029B00005E06D1C204600F05FFBA842F4D800BF84
:1029C000761C002504E07019205C0BA948556D1C8D
:1029D000042DF8DB00200BA9485513A90BA800F023
:1029E000C8FB68B1FE480079012802D13120A075EA
:1029F00082E0FB48007902287ED13220A0757BE07E
:102A000011A90BA800F0B5FBA8B1002510E0681CC7
:102A1000FFF739FB012805D13220152101EB4501D3
:102A2000605404E03120152101EB450160546D1C18
:102A30000A2DECDB60E00FA90BA800F09AFB002840
:102A40005AD0E74880694FF47A71B0FBF1F030302A
:102A500004F8180FE24880696421B0FBF1F03030CF
:102A60006070DF4880690A21B0FBF1F03030A0705F
:102A7000DB488069B0FBF1F201FB12003030E070FE
:102A8000D748C0694FF47A71B0FBF1F03030607113
:102A9000D348C0696421B0FBF1F03030A071D04858
:102AA000C0690A21B0FBF1F03030E071CC48C06958
:102AB000B0FBF1F201FB120030302072C848006A0E
:102AC0004FF47A71B0FBF1F03030A072C448006A64
:102AD000B0FBF1F03030E072C148006A0A21B0FB6F
:102AE000F1F030302073BE48006AB0FBF1F201FB18
:102AF000120030306073183C432060705220A07088
:102B00003020A07315A90BA800F033FB00287DD05E
:102B1000B3490422086801A900F0F9FA9DF80400FD
:102B20008DF818009DF805008DF819009DF8060035
:102B30008DF81A009DF807008DF81B00A848007951
:102B4000012803D131208DF81E0086E0A4480079C9
:102B5000022803D132208DF81E007EE0A0480079C3
:102B600005283AD134208DF81E009D48C07B0A21EB
:102B700090FBF1F03030C0B28DF820009848C07B57
:102B800090FBF1F201FB12003030C0B28DF8210051
:102B90009348007C90FBF1F03030C0B28DF82300F8
:102BA0008F48007C90FBF1F201FB12003030C0B284
:102BB0008DF824008A48407C90FBF1F03030C0B2A0
:102BC0008DF826008648407C90FBF1F201FB120054
:102BD0003030C0B28DF827003FE0814800790628E8
:102BE0003BD135208DF81E007D48807C0A2190FB6A
:102BF000F1F03030C0B28DF820007948807C90FB35
:102C0000F1F201FB12003030C0B200E02EE08DF88E
:102C100021007348C07C90FBF1F03030C0B28DF8D9
:102C200023006F48C07C90FBF1F201FB12003030B2
:102C3000C0B28DF824006A48007D90FBF1F030307E
:102C4000C0B28DF826006648007D90FBF1F201FBD2
:102C500012003030C0B28DF8270002A800F00CFA44
:102C6000C7B2394602A800F05FFB18E00DA90BA817
:102C700000F07FFA58B1042059498871204600F0CD
:102C8000FBF9C7B23946204600F04EFB07E020466C
:102C900000F0F2F9C7B23946204600F045FB17B004
:102CA000F0BDF0B593B00446AFF2503103C9CDE9A1
:102CB0001101AFF2503103C9CDE90F0149A103C998
:102CC000CDE90D0149A103C9CDE90B01AFF25C319A
:102CD00003C9CDE9090147A103C9CDE9070147A10E
:102CE00003C9CDE90501AFF26C3103C9CDE9030198
:102CF00000260025002700BF05E0605D232801D1E4
:102D00002E4605E06D1C204600F0B6F9A842F4D826
:102D100000BF761C002504E07019205C01A948550D
:102D20006D1C042DF8DB002001A9485511A901A84C
:102D300000F01FFA18B101202949C87110E10FA94C
:102D400001A800F016FAB8B1A07D312808D1012001
:102D500023490871FFF708F90C20FFF751F9FFE04C
:102D6000A07D3228EAD102201D490871FFF7F3F84F
:102D70000C20FFF702F9F3E00DA901A800F0F9F922
:102D8000002876D0607D30283CD1A07D312839D113
:102D900001201349C872617E207E303800EB80002C
:102DA00001EB400030380E49C873217FE07E303897
:102DB00000EB800001EB40003038C1B208480174DC
:102DC000E17FA07F303800EB800001EB400030381D
:102DD000C1B203484174052001490871C0E00000F8
:102DE0008C010020313030330000000031303034AD
:102DF0000000000031303037000000003130303842
:102E000000000000607D302806D1A07D322803D16B
:102E100000207149C872A3E0607D30282AD1A07DCE
:102E2000332827D101206C490873617E207E303819
:102E300000EB800001EB4000303867498874217F47
:102E4000E07E303800EB800001EB40003038C1B24A
:102E50006148C174E17FA07F303800EB800001EB56
:102E600040003038C1B25C48017506205A490871EB
:102E700076E009E0607D302872D1A07D34286FD1E2
:102E80000020554908736BE00BA901A800F071F907
:102E900048B3607D302811D1A07D32280ED1607EEC
:102EA0003038217E303901EB810100EB4107384693
:102EB000FFF763F802204849087151E0607D30282F
:102EC0004ED1A07D31284BD1607E3038217E303903
:102ED00001EB810100EB41073846FFF791F8012033
:102EE0003D4908713CE009A901A800F042F968B128
:102EF000607D302834D1A07D322831D10020364980
:102F0000886100213448C161016229E007A901A854
:102F100000F02FF948B1607D30490870A07D4870FD
:102F2000E07D8870207EC8701AE005A901A800F035
:102F300020F918B101202A49087011E003A901A85D
:102F400000F017F960B1207E3038E17D303901EBB7
:102F5000810100EB410020490860086800F072F828
:102F600013B0F0BD10B50446207826280CD1607847
:102F7000532809D1A078532806D12046FFF791FEA7
:102F80002046FFF7A1FC0BE02078262808D16078C6
:102F9000532805D1A078522802D12046FFF72CFCF7
:102FA00010BD0246032901DA022070471078262856
:102FB00004D15078432801D10120F6E71078412848
:102FC00007D15078542804D190782B2801D10020C3
:102FD000EBE70220E9E700008C0100203904002023
:102FE0008801002010B50346002003E013F8014BD0
:102FF0000C54401C9042F9DB10BD70B504460D46E0
:103000002946204600F099FE1449087070BD2DE94C
:10301000F04105460E461746002400BF07E056F86B
:103020002410042202FB0450FFF7E7FF641CBC429B
:10303000F5DBBDE8F08110B500F0A7FD342001F00C
:1030400010F810BD38B504460094054800F0E4FDC2
:10305000012269460248FFF7DAFF38BD89010020E6
:10306000000001080246002000BF02E000231354C4
:10307000401C8842FAD370470146002209B900205B
:10308000704700E0521C885C0028FBD11046F7E72F
:1030900070B505462846FFF7EFFF0646002400BF3F
:1030A00016E0295D5C4802880088401C5A4B188055
:1030B0005A48815418460088B0F5805F07DB00202D
:1030C000194608804FF480515448FFF7CBFF641C29
:1030D000B442E6DB70BD002000BF03E00021504A8F
:1030E0001154401CB0F5007FF8DB00214D4A1180DF
:1030F0007047002000BF03E000214B4A1154401CE0
:10310000B0F5007FF8DB0021484A1180704770B5A8
:1031100000230EE002B90EE0521E0A2590FBF5F6E0
:1031200005FB1605ECB20A2590FBF5F004F130051D
:103130008D540028EED100BF32B1531E02E030257D
:10314000CD545B1E002BFADA70BD30B502460B463B
:103150000021002000BF08E0545C04B907E0545C83
:10316000303C0A2500FB0540491C9942F4DB00BFB6
:1031700030BDF0B506460C4600233046FFF77CFF15
:1031800005462046FFF778FF0746BD4201D00020E4
:10319000F0BD002305E0F05CE15C884200D002E075
:1031A0005B1CAB42F7DB00BFAB4201D00020EFE776
:1031B0000120EDE70CB51E4903C9CDE900011D480A
:1031C0001D490860001DC8601A481430486019483D
:1031D0005430886019480861001D4861001D8861ED
:1031E0000846006800780968497801EB810100EB26
:1031F000410013490860002008718871C8710846B1
:103200000068002803DB08460068642802DB002011
:103210000B4908600CBD0000B8010020C409002063
:10322000C4050020B4010020C4070020B60100201E
:103230007C59000800000108A805002000020108D0
:103240008C01002058480068202801D101207047D7
:103250000020FCE730B503460A4600210024402A3E
:1032600002DCFFF7EFFF08B1002030BD4F484E4DA4
:103270002D6800EB8514002102E0585C6054491C65
:103280009142FADB0020605447480068401C464DDC
:1032900028600120E9E74448006808B90120704728
:1032A0000020FCE730B502460B4600210024FFF762
:1032B000F2FF08B1002030BD3B480068401E3A4D87
:1032C00028603A482D6800EB8514002102E0605C1C
:1032D0005054491C9942FADB002050540120EAE77F
:1032E0000021002200BF0AE0002205E000202F4B51
:1032F00003EB81139854521C402AF7DB491C202908
:10330000F2DB0020284B186070472948006820280D
:1033100001D1012070470020FCE72548006808B96A
:10332000012070470020FCE730B503460A46002123
:103330000024402A02DCFFF7E8FF08B1002030BD7E
:103340001C481B4D2D6800EB8514002102E0585CE1
:103350006054491C9142FADB002060541448006814
:10336000401C134D28600120E9E710B502460021FA
:103370000023FFF7D2FF08B1002010BD0C48006801
:10338000401E0B4C20600B48246800EB8413002186
:1033900005E0585C5054585C00B902E0491C4029D3
:1033A000F7DB00BF0120E8E7BC010020C4190020C2
:1033B000C0010020C421002010B54021CC4800F0FD
:1033C00072FF10BD10B54FF40061CA4800F069FFEC
:1033D00010BD10B54FF40061C64800F064FF10BD89
:1033E00010B54FF40051C34800F05BFF10BD10B59D
:1033F0004FF40051BF4800F056FF10BD10B54FF418
:103400008051BC4800F04DFF10BD10B54FF4805105
:10341000B84800F048FF10BD10B54FF48051B548D2
:1034200000F025FF10BD00BF411EC9B20800FBD14E
:10343000704708E0002101E04A1C91B2B1F5E27F3B
:10344000FADD421E90B20028F4DC704770B5FFF739
:10345000B9FFFFF7CCFF00260CE06006040EFFF773
:10346000BFFFFFF7D9FF08B144F00104FFF7BFFF2A
:10347000701CC6B2082EF0DB04F0F00400260CE04D
:103480006806050EFFF7ACFFFFF7C6FF08B145F071
:103490000105FFF7ACFF701CC6B2082EF0DB05F08B
:1034A000F00544EA2514FFF794FF204670BD70B57F
:1034B0000446FFF787FFFFF79AFF002512E004F0AC
:1034C000800010B1FFF79AFF01E0FFF79EFFFFF7C2
:1034D00087FF6006040E1420FFF7A5FFFFF787FFA4
:1034E000681CC5B2082DEADBFFF773FF70BD10B58D
:1034F0000AE0FC20FFF7DBFFFFF7A8FF044604F01B
:103500008000802800D000E0F3E700BF10BD70B558
:103510000446FFF757FF04F00F05002612E005F000
:10352000080010B1FFF76AFF01E0FFF76EFFFFF739
:1035300057FF6806050E1420FFF775FFFFF757FFCA
:10354000701CC6B2082EEADBFFF743FF70BD70B5F2
:10355000044604F0F005FFF735FFFFF748FF0026AB
:1035600012E005F0800010B1FFF748FF01E0FFF71F
:103570004CFFFFF735FF6806050E1420FFF753FFD9
:10358000FFF735FF701CC6B2082EEADBFFF721FFFC
:1035900070BD10B504462046FFF7D9FF2046FFF75F
:1035A000B6FF10BD10B5FFF7A2FFF820FFF77FFFB1
:1035B0003020FFF7EEFF0120FFF73BFFFFF797FFFB
:1035C000F820FFF774FF0C20FFF7E3FF0120FFF75F
:1035D00030FFFFF78CFFF820FFF769FF0120FFF7AE
:1035E000D8FF0F20FFF725FFFFF781FFF820FFF737
:1035F0005EFF0620FFF7CDFF0120FFF71AFF10BD89
:1036000010B50446FFF773FFF820FFF750FF204680
:10361000FFF7BFFF10BD2DE9F04105460E4680279C
:10362000012D06D0022D06D0032D06D0042D08D181
:1036300005E0802705E0902703E0882701E0982730
:1036400000BF00BF3846FFF7DBFF002409E0FFF7AB
:103650004EFFFA20FFF72BFF305DFFF79AFF601C4B
:10366000C4B2102CF3DBBDE8F08170B50546002430
:1036700000260A2D18D2DFE805F0170507090B0D03
:103680000F1113151C4E0FE01C4E0DE01C4E0BE0ED
:103690001C4E09E01C4E07E01C4E05E01C4E03E0EA
:1036A0001C4E01E01C4E00BF00BF66B1002408E0C4
:1036B00004EB04129119621CD0B2FFF7ACFF601C3E
:1036C000C4B2042CF4DB70BD10B5FFF775FEFFF734
:1036D00069FF0120FFF7C9FF10BD10B5FFF707FF15
:1036E000F820FFF7E4FE0120FFF753FF10BD0000B4
:1036F0000008014000180140C40100200802002019
:103700004C02002090020020D40200201803002068
:103710005C030020A0030020E40300200EB501217B
:10372000084600F0BAFF4FF0804001F00FF844F275
:103730004F60ADF8040040F2CF70ADF800000020FB
:10374000ADF80600ADF8020069464FF0804001F088
:1037500068F80121880701F0C5FD01221146900794
:1037600001F000FB0121880701F0E1FA0EBD1CB554
:103770004FF4803000F0DFF94FF4803000900020EB
:103780008DF8040010208DF8050001208DF806004A
:10379000684600F049F9802000F0CDF907210120AA
:1037A00000F0D8FD8020009000208DF804000C204F
:1037B0008DF8050001208DF80600684600F034F908
:1037C0004FF4807000F0B7F94FF4007000F0B3F9D7
:1037D0000821012000F0BEFD0921012000F0BAFD02
:1037E0004FF44070009000208DF8040010208DF8F8
:1037F000050001208DF80600684600F015F94FF429
:10380000005000F098F94FF4804000F094F94FF424
:10381000004000F090F90D21032000F09BFD0E21E7
:10382000032000F097FD0F21032000F093FD4FF4DB
:103830006040009000208DF804000C208DF80500F9
:1038400001208DF80600684600F0EEF81CBD08B5B2
:103850004FF4E06000F06CF825208DF800000020A7
:103860008DF8020001208DF80300684600F065F82D
:1038700027208DF8000002208DF8020001208DF82D
:103880000300684600F059F84FF4C06000F050F8AB
:103890001C208DF8000001208DF801008DF8020039
:1038A0008DF80300684600F048F84FF4A06000F07F
:1038B0003FF817208DF8000002208DF801008DF8E8
:1038C000020001208DF80300684600F036F84FF43E
:1038D000806000F02DF828208DF8000003208DF87E
:1038E00001008DF8020001208DF80300684600F009
:1038F00024F808BD10B50121052000F0C1FE01210A
:10390000092000F0BDFE0121102000F0B9FE0121C8
:10391000212000F0B5FE0121402000F0B1FE012180
:10392000880300F0ADFE0121880400F0B6FE10BD52
:1039300031490143314A1160704770B500210023BD
:103940000F22C47804B32D4C246804F4E064C4F559
:10395000E064210AC1F10403CA40447804FA03F187
:103960008478144021430901254C0678A155047838
:1039700004F01F050124AC4005786D11AD0005F180
:10398000E025C5F8004109E0047804F01F05012492
:10399000AC401C4D0678761145F8264070BD1A4A99
:1039A0000A400243154B1B1F1A60704739B1134A76
:1039B000121D12680243114B1B1D1A6006E00F4ACC
:1039C000121D126882430D4B1B1D1A60704704289C
:1039D00008D14FF0E021096941F004014FF0E022E5
:1039E000116107E04FF0E021096921F004014FF077
:1039F000E0221161704700000000FA050CED00E0C4
:103A000000E400E080E100E080FFFF1F00204C495F
:103A10000860091D0860091D0860091D0860494803
:103A200047491431086070478179002946D04449DC
:103A3000096802689143424A1160111D09680268D1
:103A400091433F4A121D116001793F4A1144D1F858
:103A500000140268114302793B4B1A44C2F8001467
:103A600037490831096802689143354A08321160C4
:103A7000111D096802689143314A0C321160417985
:103A800010290ED1111F0968026811432C4A08320F
:103A90001160111D096802681143294A0C32116036
:103AA00018E04179284A1144D1F800140268114302
:103AB0004279254B1A44C2F800140BE00179224ADE
:103AC0001144D1F800140268914302791E4B1A4444
:103AD000C2F8001470470021016001710C2141718E
:103AE0000021817170471649103109680143144A59
:103AF00010321160704701460020114A14321268DA
:103B00000A400AB1012000E0002070470C4914313E
:103B100008607047014600200022094B1B6803EA39
:103B20000102074B14331B680B4013B10AB101208B
:103B300000E000207047024914310860704700001F
:103B400000040140FFFF0700000001400146002083
:103B5000FB4A106800F03800084310607047F849CD
:103B6000096821F00801F64A11601146096801430D
:103B700011607047F249096821F01001F04A1160A4
:103B800011460968014311607047EE48EC494860EE
:103B9000ED4848607047EA48006940F08000E84915
:103BA000086170470420E649C96801F0010109B1C4
:103BB00001200EE0E249C96801F0040109B10220C8
:103BC00007E0DF49C96801F0100109B1032000E0F6
:103BD0000420704708B500200090FF20009002E00C
:103BE0000098401E009000980028F9D108BD70B5DB
:103BF00004460425FFF7D6FF054605E0FFF7EAFF78
:103C0000FFF7D0FF0546641E012D01D1002CF5D130
:103C100004B90525284670BD70B50546042440F654
:103C2000FF70FFF7E4FF0446042C19D1C448006973
:103C300040F00200C249086108464561006940F051
:103C40004000086140F6FF70FFF7D1FF0446012CE9
:103C500006D0BB48006941F6FD710840B8490861CB
:103C6000204670BD10B5042440F6FF70FFF7BFFF7B
:103C70000446042C18D1B248006940F00400B04951
:103C800008610846006940F04000086140F6FF7096
:103C9000FFF7ADFF0446012C06D0A948006941F6A4
:103CA000FB710840A6490861204610BD10B50424E8
:103CB00040F6FF70FFF79BFF0446042C3BD1A14860
:103CC0009F498860A04888600846006940F020004D
:103CD00008610846006940F04000086140F6FF7046
:103CE000FFF785FF0446042C1CD19548006941F676
:103CF000DF710840924908610846006940F01000F1
:103D00000861A520914908800F20FFF770FF044645
:103D1000012C10D08A48006941F6EF7108408849AB
:103D2000086108E0012C06D08548006941F6EF7172
:103D3000084083490861204610BD70B505460E460F
:103D400004240F20FFF753FF0446042C25D17C48A0
:103D5000006940F001007A4908612E800F20FFF7CA
:103D600046FF0446042C0FD1300C68800F20FFF76B
:103D70003EFF0446012C10D07148006941F6FE71E7
:103D800008406F49086108E0012C06D06C480069C2
:103D900041F6FE7108406A490861204670BD70B561
:103DA00005460E4604240F20FFF721FF0446042C8D
:103DB00013D16348006940F00100614908612E8019
:103DC0000F20FFF714FF0446012C06D05C48006961
:103DD00041F6FE7108405A490861204670BD70B531
:103DE00005460E4604240F20FFF701FF0446042C6D
:103DF00017D1544852498860534888600846006982
:103E000040F0100008612E800F20FFF7F0FE0446FE
:103E1000012C06D04A48006941F6EF710840484934
:103E20000861204670BD2DE9F04704464FF6FF7645
:103E30003746B046B1460425E443E6B2C4F307274B
:103E4000C4F307484FEA14690F20FFF7D0FE054678
:103E5000042D40D13B483A4988603B488860084679
:103E6000006940F010000861FF2E06D03748083086
:103E700006800F20FFF7BBFE0546042D08D1FF2F5B
:103E800006D032480A3007800F20FFF7B0FE054603
:103E9000042D0AD1B8F1FF0F07D02C480C30A0F840
:103EA00000800F20FFF7A3FE0546042D0AD1B9F1CB
:103EB000FF0F07D025480E30A0F800900F20FFF725
:103EC00096FE0546012D06D01D48006941F6EF71AA
:103ED00008401B4908612846BDE8F08770B50546D3
:103EE000042440F6FF70FFF782FE0446042C4AD1FA
:103EF000144813498860144888600846006940F0F7
:103F0000200008610846006940F04000086140F662
:103F1000FF70FFF76CFE0446042C2BD108480069A3
:103F200041F6DF710840064908610846006940F023
:103F30001000086165B10020044908800BE0000012
:103F40000020024023016745AB89EFCD00F8FF1F39
:103F5000A5204549088040F6FF70FFF748FE04465B
:103F6000012C10D04148006941F6EF7108403F49EB
:103F7000086108E0012C06D03C48006941F6DF7179
:103F800008403A490861204670BD2DE9F0410746D6
:103F90000D46164604243648344988603548886002
:103FA0000F20FFF724FE0446042C1AD12F48006985
:103FB00040F010002D49086147EA0500304340F009
:103FC000F8002949891C08800F20FFF710FE0446DD
:103FD000012C06D02548006941F6EF7108402349BD
:103FE00008612046BDE8F0812048C069800870471C
:103FF0001E48006A704700201C49C96901F002018F
:1040000009B1012000E0002070470020174909682D
:1040100001F0200109B1012000E00020704729B122
:10402000124A12690243114B1A6104E00F4A1269E5
:1040300082430E4B1A61704701460020012908D1C6
:104040000A4AD26902F001020AB1012008E0002008
:1040500006E0064AD2680A400AB1012000E00020CA
:1040600070470249C860704700F8FF1F00200240F7
:1040700023016745AB89EFCD10B50446C649601AE8
:104080008C422FD009DCC548204480B1B0F5806F48
:1040900016D0B0F5006F4AD11BE0B0F5806F2AD082
:1040A000B0F5006F30D0B0F5406F40D135E0012160
:1040B000042000F0FFFA0021042000F0FBFA37E0B2
:1040C0000121082000F0F6FA0021082000F0F2FAA1
:1040D0002EE00121102000F0EDFA0021102000F068
:1040E000E9FA25E00121202000F0E4FA0021202057
:1040F00000F0E0FA1CE00121402000F0DBFA002192
:10410000402000F0D7FA13E00121802000F0D2FA1D
:104110000021802000F0CEFA0AE00121080200F020
:10412000C9FA00214FF4807000F0C4FA00E000BF2B
:1041300000BF10BD10B50121084600F0BBFA0021F8
:10414000012000F0B7FA10BD2DE9F041024600252C
:104150000026002000230024002791F803C00CF063
:104160000F0591F803C00CF0100CBCF1000F03D048
:1041700091F802C04CEA050591F800C0BCF1000FAF
:1041800031D0146800202BE04FF0010C0CFA00F342
:10419000B1F800C00CEA03069E4220D183004FF024
:1041A0000F0C0CFA03F7BC4305FA03FC4CEA0404B9
:1041B00091F803C0BCF1280F06D14FF0010C0CFAA6
:1041C00000FCC2F814C00AE091F803C0BCF1480F2B
:1041D00005D14FF0010C0CFA00FCC2F810C0401CD5
:1041E0000828D1D31460B1F800C0BCF1FF0F34DD52
:1041F000546800202EE000F1080C4FF0010808FA86
:104200000CF3B1F800C00CEA03069E4221D18300F2
:104210004FF00F0C0CFA03F7BC4305FA03FC4CEA11
:10422000040491F803C0BCF1280F05D100F1080C7B
:1042300008FA0CF8C2F8148091F803C0BCF1480FDA
:1042400007D100F1080C4FF0010808FA0CF8C2F889
:104250001080401C0828CED35460BDE8F0814FF692
:10426000FF710180022181700421C17070470246F4
:10427000002093680B400BB1012000E00020704744
:104280000146886880B2704702460020D3680B4020
:104290000BB1012000E0002070470146C86880B2E1
:1042A000704701617047416170470AB1016100E0E8
:1042B00041617047C16070474FF480320A438261A8
:1042C0008161826182698269704702460020344BB5
:1042D00018684FF68073184040EA02100843304BCC
:1042E000186070472F49C8617047F0B50A4600232F
:1042F0000024002100252A4E7168C0F3034583B2D3
:1043000000F44016B6F5401F08D121F07061244E2C
:10431000766826F07066224F7E6012E000F4801608
:10432000B6F5801F06D1032606FA05F4A14341F035
:10433000706106E0460D360103FA06F6B14341F01E
:10434000706122B1460D360103FA06F63143144E70
:104350007160F0BD30B500228B071C0F0F2303FAEC
:1043600004F20F4B08338C1053F8243093430C4C59
:1043700008348D1044F8253023468C1053F824302F
:104380008C07240F00FA04F42343054C08348D10E5
:1043900044F8253030BD00000014014000F8FEBF95
:1043A0000000014000002042DE48006840F00100AB
:1043B000DC49086008464068DB490840D949486044
:1043C00008460068D9490840D64908600846006890
:1043D00020F4802008600846406820F4FE00486011
:1043E000002088607047CF49096821F48031CD4AA8
:1043F00011601146096821F480211160B0F5803FF9
:1044000003D0B0F5802F0ED106E0C649096841F40B
:104410008031C44A116007E0C249096841F4A02113
:10442000C04A116000E000BF00BF704710B50146F0
:104430000022002300204A11012A02D1B94C23682E
:1044400006E0022A02D1B74C236A01E0B54C636A48
:1044500001F01F02012494401C400CB1012000E037
:10446000002010BD38B5002000900024002500BFBA
:104470003120FFF7DBFF05460098401C00901DB976
:104480000098B0F5A06FF3D13120FFF7CFFF08B14E
:10449000012400E00024204638BD01460020A14A46
:1044A000106820F0F80040EAC10010607047A04991
:1044B00008607047024600209A4B586820F47C1030
:1044C00042EA01031843974B5860704798490866C1
:1044D000704701460020934A506820F003000843CB
:1044E000506070478F48406800F00C0070470146EC
:1044F00000208C4A506820F0F0000843506070475C
:1045000001460020874A506820F4E060084350606C
:10451000704701460020834A506820F4605040EA0A
:10452000C1005060704729B17E4A527A02437D4BE8
:104530005A7204E07B4A527A82437A4B5A7270472D
:104540007B49D8310860704701460020754A5068A1
:1045500020F440400843506070470021714A2032E7
:104560001170704A82F82010012802D004280AD164
:1045700004E001216B4A2032117005E00521694AEF
:104580002032117000E000BF00BF70476949086029
:1045900070476449096A0143624A1162704765497C
:1045A00044390860704730B5002100220024002300
:1045B0005C4D6D6805F00C0121B1042905D0082976
:1045C00023D105E05C4D056022E05C4D05601FE0F5
:1045D000544D6D6805F47012022505EB9242514D61
:1045E0006D6805F480341CB9554D554305600BE0EA
:1045F0004C4D6D6805F400351DB14F4D55430560B8
:1046000002E04E4D5543056002E04B4D056000BF92
:1046100000BF444D6D6805F0F0010909494D6B5C20
:104620000568DD4045603F4D6D6805F4E061090AAD
:10463000444D6B5C4568DD4085603A4D6D6805F41E
:104640006051C90A3F4D6B5C4568DD40C560354D22
:104650006D6805F44041890B3B4D6B5CC568B5FB4B
:10466000F3F5056130BD29B12E4A526902432D4B45
:104670005A6104E02B4A526982432A4B5A617047BF
:1046800029B1284A92690243264B9A6104E0254ADF
:1046900092698243234B9A61704729B1214AD269BA
:1046A0000243204BDA6104E01E4AD26982431D4B6B
:1046B000DA61704729B11B4AD2680243194BDA60AC
:1046C00004E0184AD2688243164BDA60704729B179
:1046D000144A12690243134B1A6104E0114A126929
:1046E0008243104B1A617047124940390860704785
:1046F0000F49C86470470B49C87170470948406A40
:1047000040F0807007494862704701460020054A22
:1047100092680A400AB1012000E000207047014978
:1047200088727047001002400000FFF8FFFFF6FE9D
:10473000000042428004424200127A000024F40049
:1047400000093D003E0400204E04002010B5044640
:10475000F749601A8C4245D00CDCB4F1804F1DD073
:10476000F448204418B3B0F5806F29D0B0F5006F3D
:1047700054D12EE0B0F5806F3DD0B0F58E3F03D020
:10478000B0F5923F4AD13FE00121C802FFF792FF06
:1047900000214FF40060FFF78DFF40E00121084643
:1047A000FFF795FF00210120FFF791FF37E001217E
:1047B0000220FFF78CFF00210220FFF788FF2EE088
:1047C00001210420FFF783FF00210420FFF77FFF72
:1047D00025E001210820FFF77AFF00210820FFF7DC
:1047E00076FF1CE001211020FFF771FF002110204F
:1047F000FFF76DFF13E001212020FFF768FF002184
:104800002020FFF764FF0AE001214803FFF752FF71
:1048100000214FF40050FFF74DFF00E000BF00BF44
:1048200010BD028802F08F020280CA884B881A43AA
:1048300003881A4302808A8882850A880285BE4AD4
:10484000904202D0BD4A904201D10A7A02860122EA
:104850008282704770B5002400220023058C4FF639
:10486000FE7635400584028C8388048B4FF68F7565
:104870002C400D882C43751E2A400D892A434D88F3
:104880002A43CD888586AC4DA84202D0AB4DA842C4
:1048900013D14FF6F7752A404D892A434FF6FB7521
:1048A0002A408D882A4347F6FF652B4047F6FF557F
:1048B0002B408D892B43CD892B4383800483028435
:1048C00070BD70B5002400220023058C4FF6EF76F2
:1048D00035400584028C8388048B48F6FF752C4094
:1048E0000D884FF6FF7606EA05252C434FF6DF7557
:1048F0002A400D8906EA05152A434D8806EA051562
:104900002A43CD8805878C4DA84202D08B4DA84202
:104910001DD14FF67F752A404D894FF6FF7606EA86
:1049200005152A434FF6BF752A408D8806EA0515FE
:104930002A4347F6FF352B4047F2FF752B408D8900
:1049400006EA85052B43CD8906EA85052B4383803E
:104950000483028470BD70B5002400220023058CFE
:104960004FF6FF6635400584028C8388848B4FF6B2
:104970008F752C400D882C434FF6FF552A400D892A
:104980004FF6FF7606EA05252A434D8806EA0525F7
:104990002A43CD888587684DA84202D0674DA8423A
:1049A0001DD14FF2FF752A404D894FF6FF7606EA7A
:1049B00005252A434FF6FF352A408D8806EA05254E
:1049C0002A4346F6FF752B4045F6FF752B408D892F
:1049D00006EA05152B43CD8906EA05152B4383808E
:1049E0008483028470BD70B5002400220023058CEE
:1049F0004EF6FF7635400584028C8388848B48F61A
:104A0000FF752C400D884FF6FF7606EA05252C43EE
:104A10004DF6FF752A400D8906EA05352A434D8873
:104A200006EA05352A43CD88A0F84050424DA842F9
:104A300002D0424DA84207D1C3F30D038D894FF632
:104A4000FF7606EA85152B4383808483028470BD3C
:104A5000828B4FF2FF331A408283828B4FF6FF73B3
:104A600003EA01231A4382837047F0B50C461546CA
:104A7000002100220026078C4EF6FF7C07EA0C0777
:104A80000784818B028C4FF6FF7707EA043640F6E5
:104A9000FF4739404FF6FF7707EA05274FF6FF7CBF
:104AA0000CEA033C47EA0C0739434DF6FF773A40DE
:104AB00046F480573A4381830284F0BD828B4FF6DF
:104AC000F3731A408283828B0A4382837047F0B566
:104AD0000C461546002100220026078C4FF6FF6C7D
:104AE00007EA0C070784818B028C4FF6FF7707EAF1
:104AF00004264FF60C7739404FF6FF7707EA031785
:104B00002F4339434FF6FF573A4046F480773A43F4
:104B100081830284F0BD028B4FF2FF331A4002837F
:104B2000028B4FF6FF7303EA01231A430283704797
:104B30000010004000FCFFBF002C01400034014089
:104B4000F0B50C461546002100220026078C4FF6D2
:104B5000EF7C07EA0C070784018B028C4FF6FF7786
:104B600007EA041640F6FF4739404FF6FF7707EA99
:104B7000033739434FF6FF7707EA052739434FF6E6
:104B8000DF773A4046F010073A4301830284F0BDD4
:104B9000028B4FF6F3731A400283028B0A4302839F
:104BA0007047F0B50C46154600210022068C4FF6E2
:104BB000FE773E400684018B028C4FF60C76314026
:104BC0007E1C06EA03162E4331437E1E324044F01B
:104BD0000106324301830284F0BD70B505460C46E0
:104BE000208850B92389A28861882846FFF7D9FF19
:104BF000E1882846FFF7CCFF25E0208804280AD169
:104C00002389A28861882846FFF79AFFE188284611
:104C1000FFF781FF17E0208808280AD12389A2889E
:104C200061882846FFF753FFE1882846FFF746FFD3
:104C300009E02389A28861882846FFF716FFE188EA
:104C40002846FFF705FF70BD2DE9F04105460C46EB
:104C500000260127608808B9022600E00026A08807
:104C6000012801D1022700E001272088A0B923896B
:104C7000A28861882846FFF794FFE1882846FFF75D
:104C800087FF23893A4631462846FFF759FFE188D6
:104C90002846FFF740FF13E02389A2886188284651
:104CA000FFF74EFFE1882846FFF735FF23893A4694
:104CB00031462846FFF775FFE1882846FFF768FF71
:104CC000BDE8F0810A884B881A438B881A43CB8849
:104CD0001A430B891A434B891A438B891A43A0F84C
:104CE000442070474FF6FF71818000210180C18010
:104CF0004180017270470021018041808180C18024
:104D0000018141818181C181704700210180418001
:104D1000012181800021C180018170470021018033
:104D200041808180C180018141818181704721B1B1
:104D3000028842F00102028004E0028840F2FE3361
:104D40001A400280704731B1B0F8442042F400426A
:104D5000A0F8442005E0B0F84420C2F30E02A0F809
:104D6000442070471AB183890B43838102E0838911
:104D70008B43838170478182704741EA0203A0F828
:104D8000483070471AB183890B43838102E08389DD
:104D90008B438381704701894FF6F872114001817E
:104DA00070470A46002101894FF68F73194011435D
:104DB0000181704730B504460D4629462046FFF76D
:104DC000F0FF208940F00700208130BD2DE9F0413F
:104DD00004460D4616461F46602D06D13B4601226D
:104DE00031462046FFF7ACFE05E03B460122314646
:104DF0002046FFF7D6FE29462046FFF7D2FF20893E
:104E000040F007002081BDE8F08170B50C4600211C
:104E10000189C9B244EA02054FF6FF7606EA032685
:104E200035432943018170BD2DE9F04105460E4609
:104E300017469846002443463A4631462846FFF72F
:104E4000E4FF2C894FF6F870044044F007044FF655
:104E50008F70044044F070042C81BDE8F081F0B5FF
:104E600004460D4616461F463B4632462946204616
:104E7000FFF7CBFF208940F480402081F0BD018501
:104E8000828270470A460021018840F28F33194020
:104E9000114301807047F0B50C4615461E460021AF
:104EA000002200230189028B038C4FF6F8773940EA
:104EB00021434FF6FC473A4040F201173A434FF680
:104EC000DD773B404FF6FF7707EA06172F433B435A
:104ED000018102830384F0BD0A460021018B4FF655
:104EE0008F7319401143018370470A460021018BDB
:104EF00048F6FF7319404FF6FF7303EA0223194384
:104F0000018370470A460021818B4FF68F73194049
:104F10001143818370470A460021818B48F6FF7355
:104F200019404FF6FF7303EA022319438183704748
:104F300021B1028842F08002028004E0028840F23F
:104F40007F331A400280704721B1828842F0040208
:104F5000828004E082884FF6FB731A40828070479B
:104F600021B1828842F00802828004E082884FF6F4
:104F7000F7731A408280704721B1828842F00102A3
:104F8000828004E082884FF6FE731A408280704768
:104F90000A460021018B4FF6F77319401143018334
:104FA00070470A460021018B4FF2FF7319404FF6FC
:104FB000FF7303EA02231943018370470A46002165
:104FC000818B4FF6F77319401143818370470A466E
:104FD0000021818B4FF2FF7319404FF6FF7303EAF4
:104FE00002231943818370470A460021018B4FF643
:104FF000FB7319401143018370470A460021018B5E
:105000004FF6FF3319404FF6FF7303EA02231943AB
:10501000018370470A460021818B4FF6FB731940CC
:105020001143818370470A460021818B4FF6FF337D
:1050300019404FF6FF7303EA022319438183704737
:105040000A460021018B4FF67F73194011430183FB
:1050500070470A460021018BC1F30E014FF6FF7322
:1050600003EA02231943018370470A460021818B1A
:105070004FF67F7319401143818370470A46002120
:10508000818BC1F30E014FF6FF7303EA022319432C
:10509000818370470A460021018C4FF6FD73194049
:1050A0001143018470470A460021018C4FF6F773C3
:1050B00019401143018470470A460021018C4FF6C4
:1050C000DF7319404FF6FF7303EA0213194301849B
:1050D00070470A460021018C4FF67F7319404FF646
:1050E000FF7303EA02131943018470470A46002143
:1050F000018C4FF6FF5319404FF6FF7303EA02236A
:105100001943018470470A460021018C4FF2FF7356
:1051100019404FF6FF7303EA0223194301847047D5
:105120000A460021018C4DF6FF7319404FF6FF73BC
:1051300003EA023319430184704710B5038C01243C
:105140008C40A3430384038C02FA01F4A4B22343EA
:10515000038410BD10B5038C04248C40A343038446
:10516000038C02FA01F4A4B22343038410BD30B5CA
:10517000038C01248C40A343038409B1082918D16E
:1051800000F1180303EB61031B684FF68F74234093
:1051900000F1180404EB6104236000F1180303EB31
:1051A00061031B68134300F1180404EB61042360DE
:1051B0001FE00B1FC3F34E0400F118031B5948F600
:1051C000FF7423400C1FC4F34E0500F11804635113
:1051D0000B1FC3F34E0400F118031B594FF6FF7465
:1051E00004EA022423430C1FC4F34E0500F1180403
:1051F000635130BD21B1028842F00202028004E016
:10520000028840F2FD331A400280704721B10288C3
:1052100042F00402028004E0028840F2FB331A40AC
:105220000280704721B1828842F08002828004E0CF
:1052300082884FF67F731A4082807047028840F25E
:10524000F7331A40028002880A430280704782883E
:105250004FF68F731A40828082880A43828070479B
:1052600002894FF6F8731A40028102890A430281CB
:10527000704702894FF67F731A40028102890A4300
:1052800002817047818470478185704781867047AD
:105290000187704781877047A0F8401070470288E7
:1052A000D2B2028002880A43028070470146888E8B
:1052B00070470146088F70470146888F7047014646
:1052C000B1F8400070470146888C70470146088D50
:1052D000704702460020138A0B400BB1012000E00A
:1052E00000207047CA430282704730B50246002052
:1052F00000230024158A05EA0103958905EA0104C3
:1053000013B10CB1012000E0002030BDCA4302827D
:105310007047000010B50446D749601A8C422BD064
:1053200006DCD648204498B1B0F5806F38D119E03A
:10533000B0F5806F2AD0B0F56C4F31D101218803D0
:10534000FFF7B8F900214FF48040FFF7B3F928E0E8
:1053500001214804FFF7BBF900214FF40030FFF7AB
:10536000B6F91EE001218804FFF7B1F900214FF4DE
:105370008020FFF7ACF914E00121C804FFF7A7F97A
:1053800000214FF40020FFF7A2F90AE001210805EF
:10539000FFF79DF900214FF48010FFF798F900E026
:1053A00000BF00BF10BD2DE9F04786B005460E4690
:1053B0000024A24600BF00BF00272F462C8A4CF6CF
:1053C000FF700440F08804432C82AC894EF6F31041
:1053D0000440B08831890843718908430443AC8193
:1053E000AC8A4FF6FF400440B0890443AC8201A868
:1053F000FFF7D9F8A248874202D1DDF810A001E0FA
:10540000DDF80CA00AEBCA0000EB0A103168890035
:10541000B0FBF1F86420B8FBF0F00401200964212E
:1054200001FB1089322000EB0910B0FBF1F000F015
:105430000F0004432C8106B0BDE8F0874FF41651ED
:10544000016000218180C18001810C214181002106
:105450008181704710B502460020108A4FF2FF0389
:1054600018400B884C8823438C882343CC882343E3
:105470001843108210BD0021018041808180C180CD
:10548000704721B1828942F40052828104E082890E
:105490004DF6FF731A4082817047F0B50346002431
:1054A0000026002500201846C1F3421401F01F0613
:1054B000012707FA06F5012C01D10C3004E0022C7B
:1054C00001D1103000E014301AB107682F43076093
:1054D00002E00768AF430760F0BD1AB1838A0B434F
:1054E000838202E0838A8B4383827047028A4FF66D
:1054F000F0731A400282028A0A430282704782894C
:105500004FF2FF731A40828182890A438281704779
:1055100021B1828942F00202828104E082894FF641
:10552000FD731A4082817047028A4FF6DF731A407A
:105530000282028A0A430282704721B1028A42F43F
:105540008042028204E0028A4BF6FF731A40028214
:105550007047C1F308028280704701468888C0F313
:1055600008007047818941F0010181817047028BF9
:10557000D2B20283028B42EA012202837047028B7D
:1055800002F47F420283028B0A430283704721B1F7
:10559000828A42F02002828204E0828A4FF6DF7320
:1055A0001A408282704721B1828A42F010028282C0
:1055B00004E0828A4FF6EF731A408282704721B16D
:1055C000828A42F00802828204E0828A4FF6F773F0
:1055D0001A4082827047828A4FF6FB731A40828299
:1055E000828A0A438282704721B1828A42F0020293
:1055F000828204E0828A4FF6FD731A4082827047ED
:105600000246002013880B400BB1012000E000206F
:105610007047CA430280704770B502460B460024AB
:10562000002100250020C3F3421503F01F010126CD
:1056300006FA01F1012D02D19689314006E0022DD2
:1056400002D1168A314001E0968A31401C120126AF
:1056500006FA04F41688344011B10CB1012000E0C0
:10566000002070BD10B5002200230A1201249440CE
:10567000A3B2DC43048010BD004C004000BCFFBF5F
:10568000003801400CB500200190009047480068A8
:1056900040F480304549086000BF4448006800F489
:1056A000003000900198401C0190009818B90198B2
:1056B000B0F5A06FF1D13D48006800F4003010B1A2
:1056C0000120009001E0002000900098012844D1C2
:1056D0003748006840F01000354908600846006807
:1056E00020F0030008600846006840F002000860EF
:1056F0002E4840682D494860084640684860084682
:10570000406840F4806048600846406820F47C109F
:1057100048600846406840F4F81048600846006851
:1057200040F08070086000BF2048006800F0007002
:105730000028F9D01D48406820F003001B4948604C
:105740000846406840F00200486000BF17484068C3
:1057500000F00C000828F9D101E000BFFEE70CBD05
:1057600010B5FFF78FFF10BD10B51048006840F06E
:1057700001000E490860084640680E4908400B4980
:105780004860084600680C49084008490860084617
:10579000006820F4802008600846406820F4FE007D
:1057A000486000208860FFF7DBFF10BD001002405A
:1057B000002002400000FFF8FFFFF6FE70470B4894
:1057C00080470B4981F308880A480047FEE7FEE757
:1057D000FEE7FEE7FEE7FEE7FEE7FEE7FEE7FEE7A1
:1057E00005480649044A064B70470000BD570008AB
:1057F000282C002031010008282A0020282C002015
:10580000282A0020032A40F2308010F0030C00F018
:10581000158011F8013BBCF1020F624498BF11F8EA
:1058200001CB00F8013B38BF11F8013BA2F10402A3
:1058300098BF00F801CB38BF00F8013B11F003031B
:1058400000F02580083AC0F0088051F8043B083A7F
:1058500051F804CBA0E80810F5E7121D5CBF51F821
:10586000043B40F8043BAFF30080D20724BF11F89B
:10587000013B11F801CB48BF11F8012B24BF00F800
:10588000013B00F801CB48BF00F8012B704710B571
:10589000203AC0F00B80B1E81850203AA0E8185028
:1058A000B1E81850A0E81850BFF4F5AF5FEA027CE9
:1058B00024BFB1E81850A0E8185044BF18C918C058
:1058C000BDE810405FEA827C24BF51F8043B40F8F9
:1058D000043B08BF7047D20728BF31F8023B48BFDE
:1058E00011F8012B28BF20F8023B48BF00F8012B1C
:1058F0007047704770477047754600F029F8AE460C
:1059000005006946534620F00700854618B020B5CB
:10591000FFF766FFBDE820404FF000064FF000079C
:105920004FF000084FF0000B21F00701AC46ACE847
:10593000C009ACE8C009ACE8C009ACE8C0098D46B4
:1059400070470446AFF300802046FAF758FC000089
:1059500000487047C429002001491820ABBEFEE76B
:10596000260002007047000041542B434950534524
:105970004E443D00000000000000000069643A0051
:105980000000000000A24A0400A24A0400A24A0447
:105990000051250200A24A04B85900080000002066
:1059A000540400006C0100083C5B00085404002013
:1059B000D4270000C8010008011E021501021302CD
:1059C00000093841542B5253540D0A194008093329
:1059D00043574D4F44453D31453940081D1D4A410F
:1059E000503D22544A4B4A32303136222C227475B3
:1059F0006F6A69616F6B656A69225629400E394981
:105A0000504D555880180F495053544152543D3110
:105A10002C22544350800812193139322E31363835
:105A20002E312E32222C383038305B2204023701DE
:105A30001011D6C7C4DCC9E8B1B8B9DCC0EDCFB528
:105A4000CDB31A20013C30303A03290C3911A90199
:105A500019115BB9D80C3E4E4F2E3030227809D741
:105A6000B4CCACB2E9D1AF337809B2CECAFDC9E843
:105A7000D6C3119809BAF4BDD0B0EFD6FA555CB7C9
:105A8000B5BB4A114809BFAABBFACAB1BCE47C192C
:105A900011DBB9D8111EB1A8BEAFB45519114933E5
:105AA000893E7999980B2020C3DCC2EBCAE4C8EB8D
:105AB000661A2A019922B933A94415C8B7C8CF2F4D
:105AC000B1BEB5D8BFAAE149E589995989899969D3
:105AD00011BDC8A1CFFB44F96629057FC7EBB5C846
