:020000040800F2
:1000000000040020F5150008C1090008C309000814
:10001000C5090008C7090008C90900080000000058
:10002000000000000000000000000000CB090008F4
:10003000CD09000800000000CF090008D109000820
:100040005F160008611600086316000865160008B0
:1000500067160008691600086B1600086D16000880
:100060006F16000871160008731600087516000850
:1000700077160008791600087B1600087D16000820
:100080007F160008811600088316000885160008F0
:1000900087160008891600088B1600088D160008C0
:1000A0008F16000891160008931600089516000890
:1000B00097160008991600089B1600089D16000860
:1000C0009F160008A1160008A3160008A516000830
:1000D000A7160008250A0008A10A00081D0B000841
:1000E000AF160008B1160008B3160008B5160008D0
:1000F000B7160008B9160008BB160008BD160008A0
:10010000BF160008C1160008C3160008C51600086F
:10011000990B0008150C0008CB160008CD16000836
:10012000CF160008D1160008D3160008D51600080F
:1001300000B585B04FF4165000900020ADF80400D3
:100140000020ADF806000020ADF808000020ADF852
:100150000C000C20ADF80A0000A94A4800F098FDF8
:10016000012240F22551474800F0EDFD01214548AC
:1001700000F0DCFD05B000BD80B54FF40070ADF8B7
:10018000000003208DF8020018208DF8030000A95C
:100190005C4800F047FE4FF48060ADF8000004209A
:1001A0008DF8030000A9574800F03CFE01BD10B5D2
:1001B0000400E4B2210089B2324800F0ECFD802155
:1001C000304800F0F0FD0028F9D02000C0B210BD8A
:1001D00070B505000C00002604E02878FFF7E7FF63
:1001E0006D1C761CF6B2E4B2A642F6D3002240F2B1
:1001F0002771244800F0A7FD70BD000080B51848A5
:100200000021017017480021017017484078A0288C
:100210000DD106211448FFF7DBFF002004E0C0B237
:10022000114900224254401CC0B20A28F7D30E489C
:10023000407812280DD10D480D49096801600D481C
:100240000D49096801600D480D490968016000F019
:10025000F5FF012240F225510A4800F074FD01BD6E
:1002600068040020690400201804002058040020BD
:10027000E8F7FF1F5C040020ECF7FF1F600400207C
:10028000F0F7FF1F0038014000B585B04FF416505D
:1002900000900020ADF804000020ADF8060000201A
:1002A000ADF808000020ADF80C000C20ADF80A00F5
:1002B00000A9384800F0ECFC012240F225513548F5
:1002C00000F041FD0121334800F030FD05B000BDD4
:1002D00080B50420ADF8000003208DF8020018203E
:1002E0008DF8030000A9074800F09CFD0820ADF838
:1002F000000004208DF8030000A9024800F092FDE0
:1003000001BD00000008014010B50400E4B2210066
:1003100089B2204800F03FFD80211E4800F043FDD7
:100320000028F9D02000C0B210BD70B505000C0047
:10033000002604E02878FFF7E7FF6D1C761CF6B274
:10034000E4B2A642F6D370BD80B50F48002101701B
:100350000E48002101700E484078B0280DD10621CA
:100360000B48FFF7E2FF002004E0C0B2084900227A
:100370004254401CC0B20A28F7D3012240F2255152
:10038000044800F0E0FC01BD6A0400206B0400207A
:10039000240400200044004000B585B04FF41650FE
:1003A00000900020ADF804000020ADF80600002009
:1003B000ADF808000020ADF80C000C20ADF80A00E4
:1003C00000A9394800F064FC012240F2255136486A
:1003D00000F0B9FC0121344800F0A8FC05B000BDD4
:1003E00080B54FF48060ADF8000003208DF8020066
:1003F00018208DF8030000A9074800F013FD4FF402
:100400000060ADF8000004208DF8030000A9024848
:1004100000F008FD01BD00BF000C014010B5040054
:10042000E4B2210089B2204800F0B5FC80211E48CA
:1004300000F0B9FC0028F9D02000C0B210BD70B5A2
:1004400005000C00002604E02878FFF7E7FF6D1C8C
:10045000761CF6B2E4B2A642F6D370BD80B50F4862
:10046000002101700E48002101700E484078C0281C
:100470000DD106210B48FFF7E2FF002004E0C0B2D7
:10048000084900224254401CC0B20A28F7D3012276
:1004900040F22551044800F056FC01BD6C040020D8
:1004A0006D040020300400200048004000B585B0F5
:1004B0004FF4165000900020ADF804000020ADF875
:1004C00006000020ADF808000020ADF80C000C205C
:1004D000ADF80A0000A9384800F0DAFB012240F22A
:1004E0002551354800F02FFC0121334800F01EFC57
:1004F00005B000BD80B54FF48060ADF8000003206A
:100500008DF8020018208DF8030000A94B4800F078
:1005100089FC4FF40060ADF8000004208DF8030062
:1005200000A9464800F07EFC01BD10B50400E4B20D
:10053000210089B2204800F02EFC80211E4800F0E6
:1005400032FC0028F9D02000C0B210BD70B5050003
:100550000C00002604E02878FFF7E7FF6D1C761CEE
:10056000F6B2E4B2A642F6D370BD000080B50F48E3
:10057000002101700E48002101700E484078D028FB
:100580000DD106210B48FFF7E1FF002004E0C0B2C7
:10059000084900224254401CC0B20A28F7D3012265
:1005A00040F22551044800F0CEFB01BD6E0400204E
:1005B0006F0400203C040020004C004000B585B0D2
:1005C0004FF4165000900020ADF804000020ADF864
:1005D00006000020ADF808000020ADF80C000C204B
:1005E000ADF80A0000A9394800F052FB012240F2A0
:1005F0002551364800F0A7FB0121344800F096FB56
:1006000005B000BD80B54FF48050ADF80000032068
:100610008DF8020018208DF8030000A9074800F0AB
:1006200001FC0420ADF8000004208DF8030000A9AF
:10063000014800F0F7FB01BD00140140001001402B
:1006400010B50400E4B2210089B2204800F0A3FBF9
:1006500080211E4800F0A7FB0028F9D02000C0B27E
:1006600010BD70B505000C00002604E02878FFF7E7
:10067000E7FF6D1C761CF6B2E4B2A642F6D370BD5D
:1006800080B50F48002101700E48002101700E480E
:100690004078E0280DD106210B48FFF7E2FF00204B
:1006A00004E0C0B2084900224254401CC0B20A28EB
:1006B000F7D3012240F22551044800F044FB01BD6C
:1006C0007004002071040020480400200050004005
:1006D00040B2002808D540B210F00F00054A80183B
:1006E000090100F8041C03E040B2034A09018154E7
:1006F000704700BF18ED00E000E400E080B5B0F105
:10070000807F01D3012010E00002000A401E07494B
:1007100008600F215FF0FF30FFF7DAFF0448002187
:100720000160044807210160002002BD14E000E0E0
:1007300018E000E010E000E080B500F0D7FC00F029
:1007400093F801213C4800F0E7FB00F0CFF800F0FF
:10075000FBF8FFF7EDFCFFF797FDFFF71DFEFFF736
:10076000A5FEFFF72BFF00F015FC00F0D3FEFFF70E
:1007700003FDFFF7ADFDFFF733FEFFF7BBFEFFF70D
:1007800041FF2E4800684FF47A71B0FBF1F0FFF79B
:10079000B5FF002800D0FEE700F00CFC0621284839
:1007A000FFF716FD06212748FFF7BFFD0621264863
:1007B000FFF745FE06212548FFF7C8FE062124481D
:1007C000FFF74FFF4FF40051774800F091FB0028EE
:1007D00013D100F0EBF84FF40051734800F088FBA0
:1007E00000280AD106211648FFF7F2FC4FF4005109
:1007F0006D4800F07DFB0028F8D0164800780128ED
:1008000001D1FFF7FBFC14480078012801D1FFF764
:100810009BFD12480078012801D1FFF71FFE104808
:100820000078012801D1FFF7A1FE0E4800780128C9
:1008300001D1FFF725FFC5E7000230004816000888
:10084000840400208C040020940400209C040020D8
:10085000A4040020690400206B0400206D04002023
:100860006F0400207104002080B54FF4E06000F0B8
:100870000DFE25208DF8000000208DF802000120DB
:100880008DF8030000A800F009FE26208DF8000076
:1008900001208DF8020001208DF8030000A800F06F
:1008A000FDFD27208DF8000002208DF802000120B8
:1008B0008DF8030000A800F0F1FD34208DF8000051
:1008C00003208DF8020001208DF8030000A800F03D
:1008D000E5FD35208DF8000004208DF80200012090
:1008E0008DF8030000A800F0D9FD01BD80B50121FD
:1008F0007C2000F0A7FD4FF6FF70ADF8000000204F
:100900008DF8030000A90C4800F08CFA00A92648D5
:1009100000F088FA00A9094800F084FA00A9084804
:1009200000F080FA00A9074800F07CFA00217C2042
:1009300000F088FD01BD00BF00080140001001402B
:10094000001401400018014080B50121052000F08D
:1009500079FD0121082000F075FD0121102000F033
:1009600071FD0121202000F06DFD0121402000F0EB
:1009700069FD01214FF4804000F064FD01215FF426
:10098000003000F071FD01215FF4802000F06CFD6B
:1009900001215FF4002000F067FD01215FF4801069
:1009A00000F062FD01BD0000000C0140002000E0ED
:1009B000401C02498842FBDB704700BFFFFF0F006D
:1009C0007047FEE7FEE7FEE7FEE7704770477047B7
:1009D00080B512480068B0F57A7F0AD14FF4807173
:1009E0000F4800F095FA0D480068401C0B4908605C
:1009F00012E00A480068B0F5FA6F08D14FF4807130
:100A0000074800F082FA05480021016004E003482D
:100A10000068401C0149086001BD00BF540400206B
:100A20000014014010B540F22551194800F0C8F9F2
:100A300000282CD017480478154800F0B0F9E4B22B
:100A400015496054144800785E2802D011480021EE
:100A50000170104800780A2802D30E480021017066
:100A60000C4800780C49405C0D280BD1002240F264
:100A70002551074800F067F9084801210170054831
:100A80000021017003480078401C0249087010BD25
:100A90000038014068040020180400206904002088
:100AA00010B540F22551194800F08AF900282CD0E1
:100AB00017480478154800F072F9E4B215496054FB
:100AC000144800785E2802D01148002101701048B7
:100AD00000780A2802D30E48002101700C480078E3
:100AE0000C49405C0D280BD1002240F225510748EB
:100AF00000F029F908480121017005480021017022
:100B000003480078401C0249087010BD00440040B2
:100B10006A040020240400206B04002010B540F279
:100B20002551194800F04CF900282CD017480478BA
:100B3000154800F034F9E4B21549605414480078BF
:100B40005E2802D0114800210170104800780A2860
:100B500002D30E48002101700C4800780C49405C1B
:100B60000D280BD1002240F22551074800F0EBF888
:100B700008480121017005480021017003480078F0
:100B8000401C0249087010BD004800406C04002061
:100B9000300400206D04002010B540F225511948A2
:100BA00000F00EF900282CD017480478154800F002
:100BB000F6F8E4B215496054144800785E2802D073
:100BC000114800210170104800780A2802D30E480D
:100BD000002101700C4800780C49405C0D280BD1B5
:100BE000002240F22551074800F0ADF808480121E5
:100BF000017005480021017003480078401C02493B
:100C0000087010BD004C00406E0400203C04002021
:100C10006F04002010B540F22551194800F0D0F8BB
:100C200000282CD017480478154800F0B8F8E4B232
:100C300015496054144800785E2802D011480021FC
:100C40000170104800780A2802D30E480021017074
:100C50000C4800780C49405C0D280BD1002240F272
:100C60002551074800F06FF8084801210170054838
:100C70000021017003480078401C0249087010BD33
:100C8000005000407004002048040020710400203F
:100C90002DE9F04385B005000C0000200026002758
:100CA0005FF000085FF00009A946298A08004CF6A9
:100CB000FF710840E18808432882A8894EF6F311A5
:100CC0000840A18822891143628911430843A88101
:100CD000A88A4FF6FF410840A1890843A88200A8CE
:100CE00000F042FB1048814501D1039E00E0029EC6
:100CF0001920704321688900B0FBF1F76420B7FB2D
:100D0000F0F000010109642201FB12785FEA08118A
:100D100032316422B1FBF2F111F00F010843288156
:100D200005B0BDE8F08300BF00380140C9B200291A
:100D300004D0818951F40051818103E0818931F42B
:100D400000518181704778B40024002500260023DB
:100D500003000800C0B24009C0B2040089B211F01B
:100D60001F0005000120A8400600012C01D10C3312
:100D700004E0022C01D1103300E01433D2B2002A77
:100D800003D018683043186003E01868F143084046
:100D9000186071BC7047C905C90D81807047808893
:100DA000C005C00D704702000020128811400A00E3
:100DB00092B2521E9241D243D20F1000C0B270477D
:100DC00078B4020000240023002500200E00F6B2B3
:100DD0007609F6B2350089B211F01F0633000126FC
:100DE00016FA03F3012D02D19089034006E0022D8B
:100DF00002D1108A034001E0908A034089B20C0AB4
:100E0000A4B2012010FA04F410880440002B05D08D
:100E10002000401E8041C043C00F00E00020C0B24F
:100E200072BC7047F0B40022002600230025002485
:100E3000002791F803C01CF00F0C624691F803C024
:100E40001CF0100F01D08B781A430B881B0621D0A1
:100E50000468002306E0CD78482D02D101259D408D
:100E600005615B1C082B14D201259D400E882E4085
:100E7000AE42F6D19D000F27AF40FE43344012FA38
:100E800005F52C43CD78282DE5D101259D40456100
:100E9000E7E704600B884FF48074A34226D34468CC
:100EA000002320E0012513F10806B5400E882E40EE
:100EB000AE4217D19D000F27AF40FE43344012FAD7
:100EC00005F52C43CD78282D04D1012513F1080612
:100ED000B5404561CD78482D04D1012513F10806B0
:100EE000B54005615B1C082BDCD34460F0BC704747
:100EF00002000020926811400A0092B2521E9241F4
:100F0000D243D20F1000C0B2704789B2016170475E
:100F100089B241617047000078B4002200240023A8
:100F200000251B4E3668330010F47026360C350051
:100F300086B2320010F44016B6F5401F08D133F0E7
:100F40007063134C246834F07064114D2C6012E00F
:100F500010F4801F06D00324AC40E443234053F038
:100F6000706308E0440DE4B2240112FA04F4E4438F
:100F7000234053F07063C9B2002905D0400DC0B2C0
:100F8000000112FA00F003430148036071BC70478E
:100F90000400014080B54FF47F40ADF8000003200D
:100FA0008DF8020010208DF8030000A94E48FFF7CD
:100FB00039FF01BD80B54FF400414B48FFF7A5FF55
:100FC000FFF7F4FC4FF400414748FFF7A1FF4FF44F
:100FD00080414548FFF799FFFFF7E8FC4FF4804157
:100FE0004148FFF795FF4FF400513F48FFF78DFF51
:100FF000FFF7DCFC4FF400513B48FFF789FF4FF44B
:1010000080513948FFF781FFFFF7D0FC4FF4805142
:101010003548FFF77DFF4FF400613348FFF775FF58
:10102000FFF7C4FC4FF400612F48FFF771FF4FF446
:1010300080612D48FFF769FFFFF7B8FC4FF480612E
:101040002948FFF765FF4FF400712748FFF75DFF60
:10105000FFF7ACFC4FF400712348FFF759FF4FF442
:1010600080712148FFF751FFFFF7A0FC4FF480711A
:101070001D48FFF74DFFFFF799FC4FF480711A48A8
:10108000FFF743FFFFF792FC4FF400711648FFF79C
:101090003CFFFFF78BFC4FF480611348FFF735FFEF
:1010A000FFF784FC4FF400610F48FFF72EFFFFF7B6
:1010B0007DFC4FF480510C48FFF727FFFFF776FCCB
:1010C0004FF400510848FFF720FFFFF76FFC4FF483
:1010D00080410548FFF719FFFFF768FC4FF4004116
:1010E0000148FFF712FF01BD0014014080B55148CF
:1010F000006850F001004F4908604F4800680E49F1
:1011000008404D4908604B4800680C49084049496F
:1011100008604848006830F4802046490860464826
:10112000006830F4FE004449086005480021016071
:1011300000F008F801BD00BF0000FFF8FFFFF6FE59
:101140000810024080B500F001F801BD82B0002017
:101150000190002000903748006850F480303549F5
:1011600008603448006810F4003000900198401C7A
:1011700001900098002803D10198B0F5A06FF0D13C
:101180002C48006810F40030401E8041C043C00F5E
:101190000090009801284AD12548006850F01000BE
:1011A00023490860224800680321884320490860D9
:1011B0001F48006850F002001D4908601E481E4983
:1011C000096801601C481C49096801601A480068E8
:1011D00050F48060184908601748006830F47C10AB
:1011E000154908601448006850F4E8101249086076
:1011F0001048006850F080700E4908600D48006883
:1012000010F0007FFAD00C480068032188430A4997
:1012100008600948006850F0020007490860064865
:10122000006810F00C000828F9D102B07047FEE702
:1012300000200240001002400410024010B584B0AB
:10124000002011E0C0B2162802D143490968090EF6
:10125000C9B20A0911F00F03C0B2404C04196370FF
:10126000C0B23E4BC254801CC0B2182849D2C0B292
:10127000002802D13A490968EAE7C0B2022803D13E
:1012800037490968090AE3E7C0B2042803D13449A1
:101290000968090CDCE7C0B2062803D130490968A7
:1012A000090ED5E7C0B2082802D12E490968CFE758
:1012B000C0B20A2803D12B490968090AC8E7C0B29D
:1012C0000C2803D127490968090CC1E7C0B20E28D0
:1012D00003D124490968090EBAE7C0B2102802D127
:1012E0001D490968B4E7C0B2122803D11A49096838
:1012F000090AADE7C0B21428A4D117490968090C3E
:10130000A6E700201AE0C0B2144911F81010C0B2CC
:1013100000AA8154C0B200A9415C0901C0B200AA70
:101320008154C0B200A9415CC0B20C4A12EB400229
:1013300052785118C0B200AA8154401CC0B20C2887
:10134000E1D35E20FEF733FF0C2100A8FEF740FF3B
:101350000D20FEF72CFF1FBD6004002000040020BC
:10136000580400205C04002030B400220021002337
:101370000024334D2D6815F00C052A00002A04D0F6
:10138000042A05D0082A06D025E02949016024E076
:101390002749016021E02A49096811F47011890C7C
:1013A000891C274A126812F48033002B04D1214A89
:1013B00001FB02F101600DE0214A126812F4003FC6
:1013C00004D01C4A01FB02F1016003E0184A01FB52
:1013D00002F1016001E0164901601949096811F044
:1013E000F00212091449545C0168E140416014495B
:1013F000096811F4E062120A0F49545C4168E14047
:1014000081600F49096811F46052D20A0A49545C9C
:101410004168E140C1600A49096811F44042920BF9
:101420000649545CC168B1FBF4F1016130BC7047FE
:1014300000127A0000093D0074040020AC04002072
:1014400004100240C9B2002905D0064909680843C2
:101450000449086005E003490968C04308400149A0
:101460000860704718100240C9B2002905D006492B
:10147000096808430449086005E003490968C04356
:1014800008400149086070471C10024002490843A7
:101490001F490860704700BF0000FA0518B400211A
:1014A00000220F23C478002C1ED01949096811F4BA
:1014B000E061D1F5E061090AD1F10402CB40417845
:1014C000914082781A401143090102780D4BD154A2
:1014D000017849110C4A0123007810F01F0013FA1B
:1014E00000F042F821000AE001784911074A01237F
:1014F000007810F01F0013FA00F042F8210011BC30
:10150000704700BF00E400E000E100E080E100E09F
:101510000CED00E080B54FF44070ADF80000012004
:101520008DF8020004208DF8030000A90848FFF799
:1015300079FC4FF47040ADF8000001208DF80200F6
:1015400004208DF8030000A90248FFF76BFC01BDE1
:1015500000100140000C014018B409E050F8041BD1
:1015600050F8042B51F8044B42F8044B1B1FF9D1DF
:1015700050F8043B002BF1D112BC7047D91500087C
:10158000740000000004002000000000591500084D
:101590003C000000D8160008740400200000000081
:1015A00070470448F3468047034981F308884FF0A9
:1015B00001005847A11500080004002010B5044898
:1015C000044C02E050F8041B8847A042FAD110BD39
:1015D0007C150008A0150008002305E050F8041B46
:1015E00041F8043B121FFBD150F8042B002AF5D11F
:1015F00070470000FFF7D5FF002801D0FFF7DEFF9E
:101600000020FFF799F800F01CF8000080B50449AD
:101610000868002803D00220ABBE0020086001BD8E
:101620006404002080B5FFF7F1FF02491820ABBE2B
:10163000FCE7C0462600020007463846FFF7F2FFE7
:10164000FBE780B5FFF7F8BF00A24A04FEE7FEE71C
:10165000FEE7FEE7FEE7FEE7FEE7FEE7FEE7FEE762
:10166000FEE7FEE7FEE7FEE7FEE7FEE7FEE7FEE752
:10167000FEE7FEE7FEE7FEE7FEE7FEE7FEE7FEE742
:10168000FEE7FEE7FEE7FEE7FEE7FEE7FEE7FEE732
:10169000FEE7FEE7FEE7FEE7FEE7FEE7FEE7FEE722
:1016A000FEE7FEE7FEE7FEE7FEE7FEE7FEE7FEE712
:1016B000FEE7FEE7FEE7FEE7FEE7FEE7FEE7FEE702
:1016C000FEE7FEE7FEE7FEE7FEE7FEE7FEE7FEE7F2
:1016D000FEE7FEE7FEE70000000000000102030451
:1016E00001020304060708095EA0B0C0D00D000087
:1016F0005EB0B0C0D00D00005EC0C0C0D00D000014
:101700005ED0C0C0D00D00005EE0C0C0D00D0000B3
:0417100002040608C1
:04000005080015F5E5
:00000001FF
